{
  "contractName": "AddressStringUtilTest",
  "abi": [
    {
      "inputs": [
        {
          "internalType": "address",
          "name": "addr",
          "type": "address"
        },
        {
          "internalType": "uint256",
          "name": "len",
          "type": "uint256"
        }
      ],
      "name": "toAsciiString",
      "outputs": [
        {
          "internalType": "string",
          "name": "",
          "type": "string"
        }
      ],
      "stateMutability": "pure",
      "type": "function"
    }
  ],
  "bytecode": "0x608060405234801561001057600080fd5b50610444806100206000396000f3fe608060405234801561001057600080fd5b506004361061002b5760003560e01c80635768786e14610030575b600080fd5b61004361003e366004610250565b610059565b6040516100509190610288565b60405180910390f35b6060610065838361006c565b9392505050565b60606100796002836103a2565b1580156100865750600082115b8015610093575060288211155b6100e35760405162461bcd60e51b815260206004820152601e60248201527f41646472657373537472696e675574696c3a20494e56414c49445f4c454e0000604482015260640160405180910390fd5b60008267ffffffffffffffff8111156100fe576100fe6103f8565b6040519080825280601f01601f191660200182016040528015610128576020820181803683370190505b5090506001600160a01b03841660005b61014360028661031a565b81101561021957600061015782601361034d565b61016290600861032e565b83901c9050600f600482901c16600061017e60f0841684610364565b905061018982610223565b8661019586600261032e565b815181106101a5576101a56103e2565b60200101906001600160f81b031916908160001a9053506101c581610223565b866101d186600261032e565b6101dc9060016102dd565b815181106101ec576101ec6103e2565b60200101906001600160f81b031916908160001a905350505050808061021190610387565b915050610138565b5090949350505050565b6000600a8260ff1610156102455761023c8260306102f5565b60f81b92915050565b61023c8260376102f5565b6000806040838503121561026357600080fd5b82356001600160a01b038116811461027a57600080fd5b946020939093013593505050565b600060208083528351808285015260005b818110156102b557858101830151858201604001528201610299565b818111156102c7576000604083870101525b50601f01601f1916929092016040019392505050565b600082198211156102f0576102f06103b6565b500190565b600060ff821660ff84168060ff03821115610312576103126103b6565b019392505050565b600082610329576103296103cc565b500490565b6000816000190483118215151615610348576103486103b6565b500290565b60008282101561035f5761035f6103b6565b500390565b600060ff821660ff84168082101561037e5761037e6103b6565b90039392505050565b600060001982141561039b5761039b6103b6565b5060010190565b6000826103b1576103b16103cc565b500690565b634e487b7160e01b600052601160045260246000fd5b634e487b7160e01b600052601260045260246000fd5b634e487b7160e01b600052603260045260246000fd5b634e487b7160e01b600052604160045260246000fdfea2646970667358221220aeae0ecdfe15065fea2723b3ccf82df0614a0f8e92272114a6de6d221b32826f64736f6c63430008050033",
  "immutableReferences": {},
  "source": "// SPDX-License-Identifier: GPL-3.0-or-later\npragma solidity >=0.8.4 <0.9.0;\n\nimport '../libraries/AddressStringUtil.sol';\n\ncontract AddressStringUtilTest {\n    function toAsciiString(address addr, uint256 len) external pure returns (string memory) {\n        return AddressStringUtil.toAsciiString(addr, len);\n    }\n}\n",
  "sourcePath": "C:/Users/skyne/Dev/work/skynet/HungryPandaHome/pandaswap/contracts/lib/test/AddressStringUtilTest.sol",
  "compiler": {
    "name": "solc",
    "version": "0.8.5+commit.a4f2e591.Emscripten.clang"
  },
  "schemaVersion": "3.4.1",
  "updatedAt": "2021-06-11T09:03:34.408Z",
  "devdoc": {
    "kind": "dev",
    "methods": {},
    "version": 1
  },
  "userdoc": {
    "kind": "user",
    "methods": {},
    "version": 1
  }
}