{
  "contractName": "BabylonianEchidnaTest",
  "abi": [
    {
      "inputs": [
        {
          "internalType": "uint256",
          "name": "input",
          "type": "uint256"
        }
      ],
      "name": "checkSqrt",
      "outputs": [],
      "stateMutability": "pure",
      "type": "function"
    },
    {
      "inputs": [
        {
          "internalType": "uint8",
          "name": "index",
          "type": "uint8"
        }
      ],
      "name": "checkMaxForIndex",
      "outputs": [],
      "stateMutability": "pure",
      "type": "function"
    }
  ],
  "bytecode": "0x608060405234801561001057600080fd5b50610373806100206000396000f3fe608060405234801561001057600080fd5b50600436106100365760003560e01c8063922ab1e21461003b578063e4134de514610050575b600080fd5b61004e61004936600461017f565b610063565b005b61004e61005e366004610198565b6100e0565b600061006e8261010f565b9050600160801b811061008357610083610311565b8161008f600283610264565b111561009d5761009d610311565b8160026100ab8360016101c2565b6100b59190610264565b11806100d057506fffffffffffffffffffffffffffffffff81145b6100dc576100dc610311565b5050565b61010c8160ff1660ff14610104576100f98260016101da565b610049906002610264565b600019610063565b50565b6000600382111561017057508060006101296002836101ff565b6101349060016101c2565b90505b8181101561016a5790508060028161014f81866101ff565b61015991906101c2565b61016391906101ff565b9050610137565b50919050565b811561017a575060015b919050565b60006020828403121561019157600080fd5b5035919050565b6000602082840312156101aa57600080fd5b813560ff811681146101bb57600080fd5b9392505050565b600082198211156101d5576101d5610327565b500190565b600060ff821660ff84168060ff038211156101f7576101f7610327565b019392505050565b60008261021c57634e487b7160e01b600052601260045260246000fd5b500490565b600181815b8085111561025c57816000190482111561024257610242610327565b8085161561024f57918102915b93841c9390800290610226565b509250929050565b60006101bb60ff84168360008261027d5750600161030b565b8161028a5750600061030b565b81600181146102a057600281146102aa576102c6565b600191505061030b565b60ff8411156102bb576102bb610327565b50506001821b61030b565b5060208310610133831016604e8410600b84101617156102e9575081810a61030b565b6102f38383610221565b806000190482111561030757610307610327565b0290505b92915050565b634e487b7160e01b600052600160045260246000fd5b634e487b7160e01b600052601160045260246000fdfea264697066735822122088fc6baec98165ca7cc4ec98d9681e68ab84d5a1394d6d1eda9d8b712ed8280464736f6c63430008050033",
  "immutableReferences": {},
  "source": "// SPDX-License-Identifier: GPL-3.0-or-later\npragma solidity >=0.8.4 <0.9.0;\n\nimport '../libraries/Babylonian.sol';\n\ncontract BabylonianEchidnaTest {\n    function checkSqrt(uint256 input) public pure {\n        uint256 sqrt = Babylonian.sqrt(input);\n\n        assert(sqrt < 2**128); // 2**128 == sqrt(2^256)\n        // since we compute floor(sqrt(input))\n        assert(sqrt**2 <= input);\n        assert((sqrt + 1)**2 > input || sqrt == type(uint128).max);\n    }\n\n    function checkMaxForIndex(uint8 index) external pure {\n        checkSqrt(index == 255 ? type(uint256).max : uint256(2)**(index + 1));\n    }\n}\n",
  "sourcePath": "C:/Users/skyne/Dev/work/skynet/HungryPandaHome/pandaswap/contracts/lib/test/BabylonianEchidnaTest.sol",
  "compiler": {
    "name": "solc",
    "version": "0.8.5+commit.a4f2e591.Emscripten.clang"
  },
  "schemaVersion": "3.4.1",
  "updatedAt": "2021-06-11T09:03:34.409Z",
  "devdoc": {
    "kind": "dev",
    "methods": {},
    "version": 1
  },
  "userdoc": {
    "kind": "user",
    "methods": {},
    "version": 1
  }
}