{
  "contractName": "BabylonianTest",
  "abi": [
    {
      "inputs": [
        {
          "internalType": "uint256",
          "name": "num",
          "type": "uint256"
        }
      ],
      "name": "sqrt",
      "outputs": [
        {
          "internalType": "uint256",
          "name": "",
          "type": "uint256"
        }
      ],
      "stateMutability": "pure",
      "type": "function"
    },
    {
      "inputs": [
        {
          "internalType": "uint256",
          "name": "num",
          "type": "uint256"
        }
      ],
      "name": "getGasCostOfSqrt",
      "outputs": [
        {
          "internalType": "uint256",
          "name": "",
          "type": "uint256"
        }
      ],
      "stateMutability": "view",
      "type": "function"
    }
  ],
  "bytecode": "0x608060405234801561001057600080fd5b506101cc806100206000396000f3fe608060405234801561001057600080fd5b50600436106100365760003560e01c8063677342ce1461003b578063821f492414610060575b600080fd5b61004e610049366004610116565b610073565b60405190815260200160405180910390f35b61004e61006e366004610116565b610084565b600061007e826100a6565b92915050565b6000805a9050610093836100a6565b505a61009f9082610169565b9392505050565b6000600382111561010757508060006100c0600283610147565b6100cb90600161012f565b90505b81811015610101579050806002816100e68186610147565b6100f0919061012f565b6100fa9190610147565b90506100ce565b50919050565b8115610111575060015b919050565b60006020828403121561012857600080fd5b5035919050565b6000821982111561014257610142610180565b500190565b60008261016457634e487b7160e01b600052601260045260246000fd5b500490565b60008282101561017b5761017b610180565b500390565b634e487b7160e01b600052601160045260246000fdfea26469706673582212204ee5bcc8550f42cf068d3798ce0dfdf34718ecf5902197fcc60b8c1f11ef14ef64736f6c63430008050033",
  "immutableReferences": {},
  "source": "// SPDX-License-Identifier: GPL-3.0-or-later\n\npragma solidity >=0.8.4 <0.9.0;\n\nimport '../libraries/Babylonian.sol';\n\ncontract BabylonianTest {\n    function sqrt(uint256 num) external pure returns (uint256) {\n        return Babylonian.sqrt(num);\n    }\n\n    function getGasCostOfSqrt(uint256 num) external view returns (uint256) {\n        uint256 gasBefore = gasleft();\n        Babylonian.sqrt(num);\n        return gasBefore - gasleft();\n    }\n}\n",
  "sourcePath": "C:/Users/skyne/Dev/work/skynet/HungryPandaHome/pandaswap/contracts/lib/test/BabylonianTest.sol",
  "compiler": {
    "name": "solc",
    "version": "0.8.5+commit.a4f2e591.Emscripten.clang"
  },
  "schemaVersion": "3.4.1",
  "updatedAt": "2021-06-11T09:03:34.411Z",
  "devdoc": {
    "kind": "dev",
    "methods": {},
    "version": 1
  },
  "userdoc": {
    "kind": "user",
    "methods": {},
    "version": 1
  }
}