{
  "contractName": "BitMathTest",
  "abi": [
    {
      "inputs": [
        {
          "internalType": "uint256",
          "name": "x",
          "type": "uint256"
        }
      ],
      "name": "mostSignificantBit",
      "outputs": [
        {
          "internalType": "uint8",
          "name": "r",
          "type": "uint8"
        }
      ],
      "stateMutability": "pure",
      "type": "function"
    }
  ],
  "bytecode": "0x608060405234801561001057600080fd5b50610218806100206000396000f3fe608060405234801561001057600080fd5b506004361061002b5760003560e01c8063e6bcbc6514610030575b600080fd5b61004361003e366004610196565b610059565b60405160ff909116815260200160405180910390f35b60006100648261006a565b92915050565b60008082116100af5760405162461bcd60e51b815260206004820152600d60248201526c4269744d6174683a205a45524f60981b604482015260640160405180910390fd5b600160801b82106100cd57608091821c916100ca90826101af565b90505b6801000000000000000082106100f057604091821c916100ed90826101af565b90505b640100000000821061010f57602091821c9161010c90826101af565b90505b62010000821061012c57601091821c9161012990826101af565b90505b610100821061014857600891821c9161014590826101af565b90505b6010821061016357600491821c9161016090826101af565b90505b6004821061017e57600291821c9161017b90826101af565b90505b60028210610191576100646001826101af565b919050565b6000602082840312156101a857600080fd5b5035919050565b600060ff821660ff84168060ff038211156101da57634e487b7160e01b600052601160045260246000fd5b01939250505056fea26469706673582212202051c006253fb5874ad0eef26d6fc08749f15928e2c35db9417a36e334113dbf64736f6c63430008050033",
  "immutableReferences": {},
  "source": "// SPDX-License-Identifier: GPL-3.0-or-later\npragma solidity >=0.8.4 <0.9.0;\n\n\nimport '../libraries/BitMath.sol';\n\ncontract BitMathTest {\n    function mostSignificantBit(uint256 x) external pure returns (uint8 r) {\n        return BitMath.mostSignificantBit(x);\n    }\n}\n",
  "sourcePath": "C:/Users/skyne/Dev/work/skynet/HungryPandaHome/pandaswap/contracts/lib/test/BitMathTest.sol",
  "compiler": {
    "name": "solc",
    "version": "0.8.5+commit.a4f2e591.Emscripten.clang"
  },
  "schemaVersion": "3.4.1",
  "updatedAt": "2021-06-11T09:03:34.414Z",
  "devdoc": {
    "kind": "dev",
    "methods": {},
    "version": 1
  },
  "userdoc": {
    "kind": "user",
    "methods": {},
    "version": 1
  }
}