{
  "contractName": "BitMathEchidnaTest",
  "abi": [
    {
      "inputs": [
        {
          "internalType": "uint256",
          "name": "input",
          "type": "uint256"
        }
      ],
      "name": "mostSignificantBitInvariant",
      "outputs": [],
      "stateMutability": "pure",
      "type": "function"
    }
  ],
  "bytecode": "0x608060405234801561001057600080fd5b5061036d806100206000396000f3fe608060405234801561001057600080fd5b506004361061002b5760003560e01c8063f94ac90e14610030575b600080fd5b61004361003e3660046101d1565b610045565b005b6000610050826100a2565b905061005d816002610252565b82101561006c5761006c61030b565b8060ff1660ff148061009257506100848160016101ea565b61008f906002610252565b82105b61009e5761009e61030b565b5050565b60008082116100e75760405162461bcd60e51b815260206004820152600d60248201526c4269744d6174683a205a45524f60981b604482015260640160405180910390fd5b600160801b821061010557608091821c9161010290826101ea565b90505b68010000000000000000821061012857604091821c9161012590826101ea565b90505b640100000000821061014757602091821c9161014490826101ea565b90505b62010000821061016457601091821c9161016190826101ea565b90505b610100821061018057600891821c9161017d90826101ea565b90505b6010821061019b57600491821c9161019890826101ea565b90505b600482106101b657600291821c916101b390826101ea565b90505b600282106101cc576101c96001826101ea565b90505b919050565b6000602082840312156101e357600080fd5b5035919050565b600060ff821660ff84168060ff0382111561020757610207610321565b019392505050565b600181815b8085111561024a57816000190482111561023057610230610321565b8085161561023d57918102915b93841c9390800290610214565b509250929050565b600061026160ff841683610268565b9392505050565b60008261027757506001610305565b8161028457506000610305565b816001811461029a57600281146102a4576102c0565b6001915050610305565b60ff8411156102b5576102b5610321565b50506001821b610305565b5060208310610133831016604e8410600b84101617156102e3575081810a610305565b6102ed838361020f565b806000190482111561030157610301610321565b0290505b92915050565b634e487b7160e01b600052600160045260246000fd5b634e487b7160e01b600052601160045260246000fdfea26469706673582212207041adbfb29826ab094155481c74bf19988199985331a472be4300becc94f0c464736f6c63430008050033",
  "immutableReferences": {},
  "source": "// SPDX-License-Identifier: GPL-3.0-or-later\npragma solidity >=0.8.4 <0.9.0;\n\n\nimport '../libraries/BitMath.sol';\n\ncontract BitMathEchidnaTest {\n    function mostSignificantBitInvariant(uint256 input) external pure {\n        uint8 msb = BitMath.mostSignificantBit(input);\n        assert(input >= (uint256(2)**msb));\n        assert(msb == 255 || input < uint256(2)**(msb + 1));\n    }\n}\n",
  "sourcePath": "C:/Users/skyne/Dev/work/skynet/HungryPandaHome/pandaswap/contracts/lib/test/BitMathEchidnaTest.sol",
  "compiler": {
    "name": "solc",
    "version": "0.8.5+commit.a4f2e591.Emscripten.clang"
  },
  "schemaVersion": "3.4.1",
  "updatedAt": "2021-06-11T09:03:34.413Z",
  "devdoc": {
    "kind": "dev",
    "methods": {},
    "version": 1
  },
  "userdoc": {
    "kind": "user",
    "methods": {},
    "version": 1
  }
}