{
  "contractName": "ExampleOracleSimple",
  "abi": [
    {
      "inputs": [
        {
          "internalType": "address",
          "name": "factory",
          "type": "address"
        },
        {
          "internalType": "address",
          "name": "tokenA",
          "type": "address"
        },
        {
          "internalType": "address",
          "name": "tokenB",
          "type": "address"
        }
      ],
      "stateMutability": "nonpayable",
      "type": "constructor"
    },
    {
      "inputs": [],
      "name": "PERIOD",
      "outputs": [
        {
          "internalType": "uint256",
          "name": "",
          "type": "uint256"
        }
      ],
      "stateMutability": "view",
      "type": "function"
    },
    {
      "inputs": [],
      "name": "blockTimestampLast",
      "outputs": [
        {
          "internalType": "uint32",
          "name": "",
          "type": "uint32"
        }
      ],
      "stateMutability": "view",
      "type": "function"
    },
    {
      "inputs": [],
      "name": "price0Average",
      "outputs": [
        {
          "internalType": "uint224",
          "name": "_x",
          "type": "uint224"
        }
      ],
      "stateMutability": "view",
      "type": "function"
    },
    {
      "inputs": [],
      "name": "price0CumulativeLast",
      "outputs": [
        {
          "internalType": "uint256",
          "name": "",
          "type": "uint256"
        }
      ],
      "stateMutability": "view",
      "type": "function"
    },
    {
      "inputs": [],
      "name": "price1Average",
      "outputs": [
        {
          "internalType": "uint224",
          "name": "_x",
          "type": "uint224"
        }
      ],
      "stateMutability": "view",
      "type": "function"
    },
    {
      "inputs": [],
      "name": "price1CumulativeLast",
      "outputs": [
        {
          "internalType": "uint256",
          "name": "",
          "type": "uint256"
        }
      ],
      "stateMutability": "view",
      "type": "function"
    },
    {
      "inputs": [],
      "name": "token0",
      "outputs": [
        {
          "internalType": "address",
          "name": "",
          "type": "address"
        }
      ],
      "stateMutability": "view",
      "type": "function"
    },
    {
      "inputs": [],
      "name": "token1",
      "outputs": [
        {
          "internalType": "address",
          "name": "",
          "type": "address"
        }
      ],
      "stateMutability": "view",
      "type": "function"
    },
    {
      "inputs": [],
      "name": "update",
      "outputs": [],
      "stateMutability": "nonpayable",
      "type": "function"
    },
    {
      "inputs": [
        {
          "internalType": "address",
          "name": "token",
          "type": "address"
        },
        {
          "internalType": "uint256",
          "name": "amountIn",
          "type": "uint256"
        }
      ],
      "name": "consult",
      "outputs": [
        {
          "internalType": "uint256",
          "name": "amountOut",
          "type": "uint256"
        }
      ],
      "stateMutability": "view",
      "type": "function"
    }
  ],
  "bytecode": "0x60e06040523480156200001157600080fd5b5060405162001261380380620012618339810160408190526200003491620005d8565b60006200004e8484846200039b60201b620004781760201c565b9050806001600160a01b03166080816001600160a01b031660601b81525050806001600160a01b0316630dfe16816040518163ffffffff1660e01b815260040160206040518083038186803b158015620000a757600080fd5b505afa158015620000bc573d6000803e3d6000fd5b505050506040513d601f19601f82011682018060405250810190620000e29190620005b3565b6001600160a01b031660a0816001600160a01b031660601b81525050806001600160a01b031663d21220a76040518163ffffffff1660e01b815260040160206040518083038186803b1580156200013857600080fd5b505afa1580156200014d573d6000803e3d6000fd5b505050506040513d601f19601f82011682018060405250810190620001739190620005b3565b6001600160a01b031660c0816001600160a01b031660601b81525050806001600160a01b0316635909c0d56040518163ffffffff1660e01b815260040160206040518083038186803b158015620001c957600080fd5b505afa158015620001de573d6000803e3d6000fd5b505050506040513d601f19601f8201168201806040525081019062000204919062000678565b600081905550806001600160a01b0316635a3d54936040518163ffffffff1660e01b815260040160206040518083038186803b1580156200024457600080fd5b505afa15801562000259573d6000803e3d6000fd5b505050506040513d601f19601f820116820180604052508101906200027f919062000678565b600181905550600080826001600160a01b0316630902f1ac6040518163ffffffff1660e01b815260040160606040518083038186803b158015620002c257600080fd5b505afa158015620002d7573d6000803e3d6000fd5b505050506040513d601f19601f82011682018060405250810190620002fd919062000622565b6002805463ffffffff191663ffffffff9290921691909117905590925090506001600160701b038216158015906200033d57506001600160701b03811615155b6200038f5760405162461bcd60e51b815260206004820181905260248201527f4578616d706c654f7261636c6553696d706c653a204e4f5f524553455256455360448201526064015b60405180910390fd5b50505050505062000692565b60008080620003ab858562000484565b6040516001600160601b0319606084811b8216602084015283901b1660348201529193509150869060480160405160208183030381529060405280519060200120604051602001620004629291907fff00000000000000000000000000000000000000000000000000000000000000815260609290921b6001600160601b031916600183015260158201527fd0d4c4cd0848c93cb4fd1f498d7013ee6bfb25783ea21593d5834f5d250ece66603582015260550190565b60408051601f1981840301815291905280516020909101209695505050505050565b600080826001600160a01b0316846001600160a01b03161415620004f55760405162461bcd60e51b815260206004820152602160248201527f50616e64614c6962726172793a204944454e544943414c5f41444452455353456044820152605360f81b606482015260840162000386565b826001600160a01b0316846001600160a01b031610620005175782846200051a565b83835b90925090506001600160a01b038216620005775760405162461bcd60e51b815260206004820152601a60248201527f50616e64614c6962726172793a205a45524f5f41444452455353000000000000604482015260640162000386565b9250929050565b80516001600160a01b03811681146200059657600080fd5b919050565b80516001600160701b03811681146200059657600080fd5b600060208284031215620005c657600080fd5b620005d1826200057e565b9392505050565b600080600060608486031215620005ee57600080fd5b620005f9846200057e565b925062000609602085016200057e565b915062000619604085016200057e565b90509250925092565b6000806000606084860312156200063857600080fd5b62000643846200059b565b925062000653602085016200059b565b9150604084015163ffffffff811681146200066d57600080fd5b809150509250925092565b6000602082840312156200068b57600080fd5b5051919050565b60805160601c60a05160601c60c05160601c610b89620006d860003960008181610196015261023401526000818160a801526101bc015260006103060152610b896000f3fe608060405234801561001057600080fd5b506004361061009e5760003560e01c8063a2e6204511610066578063a2e6204514610145578063a6bb45391461014f578063b4d1d79514610162578063c5700a021461016c578063d21220a71461019157600080fd5b80630dfe1681146100a35780633ddac953146100e75780635909c0d5146101085780635a3d5493146101115780635e6aaf2c1461011a575b600080fd5b6100ca7f000000000000000000000000000000000000000000000000000000000000000081565b6040516001600160a01b0390911681526020015b60405180910390f35b6100fa6100f53660046109c5565b6101b8565b6040519081526020016100de565b6100fa60005481565b6100fa60015481565b60045461012d906001600160e01b031681565b6040516001600160e01b0390911681526020016100de565b61014d6102fc565b005b60035461012d906001600160e01b031681565b6100fa6201518081565b60025461017c9063ffffffff1681565b60405163ffffffff90911681526020016100de565b6100ca7f000000000000000000000000000000000000000000000000000000000000000081565b60007f00000000000000000000000000000000000000000000000000000000000000006001600160a01b0316836001600160a01b031614156102325760408051602081019091526003546001600160e01b031681526102229061021b9084610551565b5160701c90565b6001600160901b031690506102f6565b7f00000000000000000000000000000000000000000000000000000000000000006001600160a01b0316836001600160a01b0316146102c35760405162461bcd60e51b815260206004820152602260248201527f4578616d706c654f7261636c6553696d706c653a20494e56414c49445f544f4b60448201526122a760f11b60648201526084015b60405180910390fd5b60408051602081019091526004546001600160e01b031681526102ea9061021b9084610551565b6001600160901b031690505b92915050565b600080600061032a7f00000000000000000000000000000000000000000000000000000000000000006105ef565b60025492955090935091506000906103489063ffffffff1683610aee565b9050620151808163ffffffff1610156103b35760405162461bcd60e51b815260206004820152602760248201527f4578616d706c654f7261636c6553696d706c653a20504552494f445f4e4f545f6044820152661153105414d15160ca1b60648201526084016102ba565b60405180602001604052808263ffffffff16600054876103d39190610ad7565b6103dd9190610aa4565b6001600160e01b039081169091529051600380546001600160e01b031916919092161790556040805160208101909152600154819063ffffffff8416906104249087610ad7565b61042e9190610aa4565b6001600160e01b039081169091529051600480546001600160e01b03191691909216179055506000929092556001556002805463ffffffff191663ffffffff909216919091179055565b600080600061048785856107ef565b6040516bffffffffffffffffffffffff19606084811b8216602084015283901b166034820152919350915086906048016040516020818303038152906040528051906020012060405160200161052f9291906001600160f81b0319815260609290921b6bffffffffffffffffffffffff1916600183015260158201527fd0d4c4cd0848c93cb4fd1f498d7013ee6bfb25783ea21593d5834f5d250ece66603582015260550190565b60408051601f1981840301815291905280516020909101209695505050505050565b604080516020810190915260008152600082158061058e575083516001600160e01b0316836105808183610ab8565b925061058c9083610aa4565b145b6105da5760405162461bcd60e51b815260206004820152601860248201527f4669786564506f696e743a204d554c5f4f564552464c4f57000000000000000060448201526064016102ba565b60408051602081019091529081529392505050565b60008060006105fc6108e3565b9050836001600160a01b0316635909c0d56040518163ffffffff1660e01b815260040160206040518083038186803b15801561063757600080fd5b505afa15801561064b573d6000803e3d6000fd5b505050506040513d601f19601f8201168201806040525081019061066f9190610a4d565b9250836001600160a01b0316635a3d54936040518163ffffffff1660e01b815260040160206040518083038186803b1580156106aa57600080fd5b505afa1580156106be573d6000803e3d6000fd5b505050506040513d601f19601f820116820180604052508101906106e29190610a4d565b91506000806000866001600160a01b0316630902f1ac6040518163ffffffff1660e01b815260040160606040518083038186803b15801561072257600080fd5b505afa158015610736573d6000803e3d6000fd5b505050506040513d601f19601f8201168201806040525081019061075a91906109fd565b9250925092508363ffffffff168163ffffffff16146107e557600061077f8286610aee565b90508063ffffffff1661079284866108f9565b516107a691906001600160e01b0316610ab8565b6107b09088610a66565b96508063ffffffff166107c385856108f9565b516107d791906001600160e01b0316610ab8565b6107e19087610a66565b9550505b5050509193909250565b600080826001600160a01b0316846001600160a01b0316141561085e5760405162461bcd60e51b815260206004820152602160248201527f50616e64614c6962726172793a204944454e544943414c5f41444452455353456044820152605360f81b60648201526084016102ba565b826001600160a01b0316846001600160a01b03161061087e578284610881565b83835b90925090506001600160a01b0382166108dc5760405162461bcd60e51b815260206004820152601a60248201527f50616e64614c6962726172793a205a45524f5f4144445245535300000000000060448201526064016102ba565b9250929050565b60006108f464010000000042610b13565b905090565b6040805160208101909152600081526000826001600160701b0316116109615760405162461bcd60e51b815260206004820181905260248201527f4669786564506f696e743a204449565f42595f5a45524f5f4652414354494f4e60448201526064016102ba565b6040805160208101909152806109976001600160701b0385166dffffffffffffffffffffffffffff60701b607088901b16610a7e565b6001600160e01b031690529392505050565b80516001600160701b03811681146109c057600080fd5b919050565b600080604083850312156109d857600080fd5b82356001600160a01b03811681146109ef57600080fd5b946020939093013593505050565b600080600060608486031215610a1257600080fd5b610a1b846109a9565b9250610a29602085016109a9565b9150604084015163ffffffff81168114610a4257600080fd5b809150509250925092565b600060208284031215610a5f57600080fd5b5051919050565b60008219821115610a7957610a79610b27565b500190565b60006001600160e01b0383811680610a9857610a98610b3d565b92169190910492915050565b600082610ab357610ab3610b3d565b500490565b6000816000190483118215151615610ad257610ad2610b27565b500290565b600082821015610ae957610ae9610b27565b500390565b600063ffffffff83811690831681811015610b0b57610b0b610b27565b039392505050565b600082610b2257610b22610b3d565b500690565b634e487b7160e01b600052601160045260246000fd5b634e487b7160e01b600052601260045260246000fdfea2646970667358221220b3e8632cee1adbb0c066e79f8c8ccf2ee7b2e8f780a633387700fa97e2b6f53f64736f6c63430008050033",
  "immutableReferences": {
    "8719": [
      {
        "length": 32,
        "start": 774
      }
    ],
    "8721": [
      {
        "length": 32,
        "start": 168
      },
      {
        "length": 32,
        "start": 444
      }
    ],
    "8723": [
      {
        "length": 32,
        "start": 406
      },
      {
        "length": 32,
        "start": 564
      }
    ]
  },
  "source": "// SPDX-License-Identifier: GPL-3.0-or-later\npragma solidity >=0.8.4 <0.9.0;\n\nimport '../../core/interfaces/IPandaFactory.sol';\nimport '../../core/interfaces/IPandaPair.sol';\nimport '../../lib/libraries/FixedPoint.sol';\n\nimport '../libraries/PandaOracleLibrary.sol';\nimport '../libraries/PandaLibrary.sol';\n\n// fixed window oracle that recomputes the average price for the entire period once every period\n// note that the price average is only guaranteed to be over at least 1 period, but may be over a longer period\ncontract ExampleOracleSimple {\n    using FixedPoint for *;\n\n    uint public constant PERIOD = 24 hours;\n\n    IPandaPair immutable pair;\n    address public immutable token0;\n    address public immutable token1;\n\n    uint    public price0CumulativeLast;\n    uint    public price1CumulativeLast;\n    uint32  public blockTimestampLast;\n    FixedPoint.uq112x112 public price0Average;\n    FixedPoint.uq112x112 public price1Average;\n\n    constructor(address factory, address tokenA, address tokenB){\n        IPandaPair _pair = IPandaPair(PandaLibrary.pairFor(factory, tokenA, tokenB));\n        pair = _pair;\n        token0 = _pair.token0();\n        token1 = _pair.token1();\n        price0CumulativeLast = _pair.price0CumulativeLast(); // fetch the current accumulated price value (1 / 0)\n        price1CumulativeLast = _pair.price1CumulativeLast(); // fetch the current accumulated price value (0 / 1)\n        uint112 reserve0;\n        uint112 reserve1;\n        (reserve0, reserve1, blockTimestampLast) = _pair.getReserves();\n        require(reserve0 != 0 && reserve1 != 0, 'ExampleOracleSimple: NO_RESERVES'); // ensure that there's liquidity in the pair\n    }\n\n    function update() external {\n        (uint price0Cumulative, uint price1Cumulative, uint32 blockTimestamp) =\n            PandaOracleLibrary.currentCumulativePrices(address(pair));\n        uint32 timeElapsed = blockTimestamp - blockTimestampLast; // overflow is desired\n\n        // ensure that at least one full period has passed since the last update\n        require(timeElapsed >= PERIOD, 'ExampleOracleSimple: PERIOD_NOT_ELAPSED');\n\n        // overflow is desired, casting never truncates\n        // cumulative price is in (uq112x112 price * seconds) units so we simply wrap it after division by time elapsed\n        price0Average = FixedPoint.uq112x112(uint224((price0Cumulative - price0CumulativeLast) / timeElapsed));\n        price1Average = FixedPoint.uq112x112(uint224((price1Cumulative - price1CumulativeLast) / timeElapsed));\n\n        price0CumulativeLast = price0Cumulative;\n        price1CumulativeLast = price1Cumulative;\n        blockTimestampLast = blockTimestamp;\n    }\n\n    // note this will always return 0 before update has been called successfully for the first time.\n    function consult(address token, uint amountIn) external view returns (uint amountOut) {\n        if (token == token0) {\n            amountOut = price0Average.mul(amountIn).decode144();\n        } else {\n            require(token == token1, 'ExampleOracleSimple: INVALID_TOKEN');\n            amountOut = price1Average.mul(amountIn).decode144();\n        }\n    }\n}\n",
  "sourcePath": "C:/Users/skyne/Dev/work/skynet/HungryPandaHome/pandaswap/contracts/periphery/examples/ExampleOracleSimple.sol",
  "compiler": {
    "name": "solc",
    "version": "0.8.5+commit.a4f2e591.Emscripten.clang"
  },
  "schemaVersion": "3.4.1",
  "updatedAt": "2021-06-11T09:03:34.498Z",
  "devdoc": {
    "kind": "dev",
    "methods": {},
    "version": 1
  },
  "userdoc": {
    "kind": "user",
    "methods": {},
    "version": 1
  }
}