{
  "contractName": "ExampleFlashSwap",
  "abi": [
    {
      "inputs": [
        {
          "internalType": "address",
          "name": "_factory",
          "type": "address"
        },
        {
          "internalType": "address",
          "name": "_factoryV1",
          "type": "address"
        },
        {
          "internalType": "address",
          "name": "router",
          "type": "address"
        }
      ],
      "stateMutability": "nonpayable",
      "type": "constructor"
    },
    {
      "stateMutability": "payable",
      "type": "receive"
    },
    {
      "inputs": [
        {
          "internalType": "address",
          "name": "sender",
          "type": "address"
        },
        {
          "internalType": "uint256",
          "name": "amount0",
          "type": "uint256"
        },
        {
          "internalType": "uint256",
          "name": "amount1",
          "type": "uint256"
        },
        {
          "internalType": "bytes",
          "name": "data",
          "type": "bytes"
        }
      ],
      "name": "pandaCall",
      "outputs": [],
      "stateMutability": "nonpayable",
      "type": "function"
    }
  ],
  "bytecode": "0x60e06040523480156200001157600080fd5b50604051620014b8380380620014b8833981016040819052620000349162000126565b6001600160601b0319606083811b821660805284901b1660a052604080516315ab88c960e31b815290516001600160a01b0383169163ad5c4648916004808301926020929190829003018186803b1580156200008f57600080fd5b505afa158015620000a4573d6000803e3d6000fd5b505050506040513d601f19601f82011682018060405250810190620000ca919062000101565b60601b6001600160601b03191660c0525062000170915050565b80516001600160a01b0381168114620000fc57600080fd5b919050565b6000602082840312156200011457600080fd5b6200011f82620000e4565b9392505050565b6000806000606084860312156200013c57600080fd5b6200014784620000e4565b92506200015760208501620000e4565b91506200016760408501620000e4565b90509250925092565b60805160601c60a05160601c60c05160601c6112d0620001e86000396000818161023201528181610267015281816102ac015281816103010152818161035f015281816106100152818161069b01526107e1015260008181610163015281816105bd01526108d50152600061041101526112d06000f3fe6080604052600436106100225760003560e01c80636d4117b11461002e57600080fd5b3661002957005b600080fd5b34801561003a57600080fd5b5061004e61004936600461102e565b610050565b005b6040805160028082526060820183526000926020830190803683370190505090506000806000336001600160a01b0316630dfe16816040518163ffffffff1660e01b815260040160206040518083038186803b1580156100af57600080fd5b505afa1580156100c3573d6000803e3d6000fd5b505050506040513d601f19601f820116820180604052508101906100e79190611011565b90506000336001600160a01b031663d21220a76040518163ffffffff1660e01b815260040160206040518083038186803b15801561012457600080fd5b505afa158015610138573d6000803e3d6000fd5b505050506040513d601f19601f8201168201806040525081019061015c9190611011565b90506101897f00000000000000000000000000000000000000000000000000000000000000008383610a66565b6001600160a01b0316336001600160a01b0316146101a9576101a961122a565b8815806101b4575087155b6101c0576101c061122a565b88156101cc57806101ce565b815b856000815181106101e1576101e1611256565b6001600160a01b039092166020928302919091019091015288156102055781610207565b805b8560018151811061021a5761021a611256565b6001600160a01b0392831660209182029290920101527f00000000000000000000000000000000000000000000000000000000000000008116908316146102615788610263565b875b93507f00000000000000000000000000000000000000000000000000000000000000006001600160a01b0316826001600160a01b0316146102a457876102a6565b885b925050507f00000000000000000000000000000000000000000000000000000000000000006001600160a01b0316836000815181106102e7576102e7611256565b60200260200101516001600160a01b0316148061034f57507f00000000000000000000000000000000000000000000000000000000000000006001600160a01b03168360018151811061033c5761033c611256565b60200260200101516001600160a01b0316145b61035b5761035b61122a565b60007f00000000000000000000000000000000000000000000000000000000000000006001600160a01b03168460008151811061039a5761039a611256565b60200260200101516001600160a01b0316146103d057836000815181106103c3576103c3611256565b60200260200101516103ec565b836001815181106103e3576103e3611256565b60200260200101515b6040516303795fb160e11b81526001600160a01b0380831660048301529192506000917f000000000000000000000000000000000000000000000000000000000000000016906306f2bf629060240160206040518083038186803b15801561045357600080fd5b505afa158015610467573d6000803e3d6000fd5b505050506040513d601f19601f8201168201806040525081019061048b9190611011565b905083156107ba5760006104a187890189611136565b60405163095ea7b360e01b81526001600160a01b038481166004830152602482018890529192509084169063095ea7b390604401602060405180830381600087803b1580156104ef57600080fd5b505af1158015610503573d6000803e3d6000fd5b505050506040513d601f19601f8201168201806040525081019061052791906110c4565b506040516395e3c50b60e01b8152600481018690526024810182905260001960448201526000906001600160a01b038416906395e3c50b90606401602060405180830381600087803b15801561057c57600080fd5b505af1158015610590573d6000803e3d6000fd5b505050506040513d601f19601f820116820180604052508101906105b4919061114f565b905060006105e37f0000000000000000000000000000000000000000000000000000000000000000888a610b3f565b6000815181106105f5576105f5611256565b6020026020010151905080821161060e5761060e61122a565b7f00000000000000000000000000000000000000000000000000000000000000006001600160a01b031663d0e30db0826040518263ffffffff1660e01b81526004016000604051808303818588803b15801561066957600080fd5b505af115801561067d573d6000803e3d6000fd5b505060405163a9059cbb60e01b8152336004820152602481018590527f00000000000000000000000000000000000000000000000000000000000000006001600160a01b0316935063a9059cbb92506044019050602060405180830381600087803b1580156106eb57600080fd5b505af11580156106ff573d6000803e3d6000fd5b505050506040513d601f19601f8201168201806040525081019061072391906110c4565b61072f5761072f61122a565b60006001600160a01b038e1661074583856111fc565b6040805160008152602081019182905261075e91611168565b60006040518083038185875af1925050503d806000811461079b576040519150601f19603f3d011682016040523d82523d6000602084013e6107a0565b606091505b50509050806107b1576107b161122a565b50505050610a5a565b60006107c887890189611136565b604051632e1a7d4d60e01b8152600481018690529091507f00000000000000000000000000000000000000000000000000000000000000006001600160a01b031690632e1a7d4d90602401600060405180830381600087803b15801561082d57600080fd5b505af1158015610841573d6000803e3d6000fd5b505060405163f39b5b9b60e01b8152600481018490526000196024820152600092506001600160a01b038516915063f39b5b9b9087906044016020604051808303818588803b15801561089357600080fd5b505af11580156108a7573d6000803e3d6000fd5b50505050506040513d601f19601f820116820180604052508101906108cc919061114f565b905060006108fb7f0000000000000000000000000000000000000000000000000000000000000000878a610b3f565b60008151811061090d5761090d611256565b602002602001015190508082116109265761092661122a565b60405163a9059cbb60e01b8152336004820152602481018290526001600160a01b0386169063a9059cbb90604401602060405180830381600087803b15801561096e57600080fd5b505af1158015610982573d6000803e3d6000fd5b505050506040513d601f19601f820116820180604052508101906109a691906110c4565b6109b2576109b261122a565b6001600160a01b03851663a9059cbb8e6109cc84866111fc565b6040516001600160e01b031960e085901b1681526001600160a01b0390921660048301526024820152604401602060405180830381600087803b158015610a1257600080fd5b505af1158015610a26573d6000803e3d6000fd5b505050506040513d601f19601f82011682018060405250810190610a4a91906110c4565b610a5657610a5661122a565b5050505b50505050505050505050565b6000806000610a758585610cda565b6040516bffffffffffffffffffffffff19606084811b8216602084015283901b1660348201529193509150869060480160405160208183030381529060405280519060200120604051602001610b1d9291906001600160f81b0319815260609290921b6bffffffffffffffffffffffff1916600183015260158201527fd0d4c4cd0848c93cb4fd1f498d7013ee6bfb25783ea21593d5834f5d250ece66603582015260550190565b60408051601f1981840301815291905280516020909101209695505050505050565b6060600282511015610b985760405162461bcd60e51b815260206004820152601a60248201527f50616e64614c6962726172793a20494e56414c49445f5041544800000000000060448201526064015b60405180910390fd5b815167ffffffffffffffff811115610bb257610bb261126c565b604051908082528060200260200182016040528015610bdb578160200160208202803683370190505b509050828160018351610bee91906111fc565b81518110610bfe57610bfe611256565b602002602001018181525050600060018351610c1a91906111fc565b90505b8015610cd257600080610c6d8786610c366001876111fc565b81518110610c4657610c46611256565b6020026020010151878681518110610c6057610c60611256565b6020026020010151610dce565b91509150610c95848481518110610c8657610c86611256565b60200260200101518383610eb3565b84610ca16001866111fc565b81518110610cb157610cb1611256565b60200260200101818152505050508080610cca90611213565b915050610c1d565b509392505050565b600080826001600160a01b0316846001600160a01b03161415610d495760405162461bcd60e51b815260206004820152602160248201527f50616e64614c6962726172793a204944454e544943414c5f41444452455353456044820152605360f81b6064820152608401610b8f565b826001600160a01b0316846001600160a01b031610610d69578284610d6c565b83835b90925090506001600160a01b038216610dc75760405162461bcd60e51b815260206004820152601a60248201527f50616e64614c6962726172793a205a45524f5f414444524553530000000000006044820152606401610b8f565b9250929050565b6000806000610ddd8585610cda565b509050610deb868686610a66565b50600080610dfa888888610a66565b6001600160a01b0316630902f1ac6040518163ffffffff1660e01b815260040160606040518083038186803b158015610e3257600080fd5b505afa158015610e46573d6000803e3d6000fd5b505050506040513d601f19601f82011682018060405250810190610e6a91906110e6565b506001600160701b031691506001600160701b03169150826001600160a01b0316876001600160a01b031614610ea1578082610ea4565b81815b90999098509650505050505050565b6000808411610f155760405162461bcd60e51b815260206004820152602860248201527f50616e64614c6962726172793a20494e53554646494349454e545f4f555450556044820152671517d05353d5539560c21b6064820152608401610b8f565b600083118015610f255750600082115b610f7d5760405162461bcd60e51b8152602060048201526024808201527f50616e64614c6962726172793a20494e53554646494349454e545f4c495155496044820152634449545960e01b6064820152608401610b8f565b6000610f956103e8610f8f8688610fca565b90610fca565b90506000610fa96103e6610f8f8689610fdd565b9050610fc06001610fba83856111bb565b90610fe9565b9695505050505050565b6000610fd682846111dd565b9392505050565b6000610fd682846111fc565b6000610fd682846111a3565b80516001600160701b038116811461100c57600080fd5b919050565b60006020828403121561102357600080fd5b8151610fd681611282565b60008060008060006080868803121561104657600080fd5b853561105181611282565b94506020860135935060408601359250606086013567ffffffffffffffff8082111561107c57600080fd5b818801915088601f83011261109057600080fd5b81358181111561109f57600080fd5b8960208285010111156110b157600080fd5b9699959850939650602001949392505050565b6000602082840312156110d657600080fd5b81518015158114610fd657600080fd5b6000806000606084860312156110fb57600080fd5b61110484610ff5565b925061111260208501610ff5565b9150604084015163ffffffff8116811461112b57600080fd5b809150509250925092565b60006020828403121561114857600080fd5b5035919050565b60006020828403121561116157600080fd5b5051919050565b6000825160005b81811015611189576020818601810151858301520161116f565b81811115611198576000828501525b509190910192915050565b600082198211156111b6576111b6611240565b500190565b6000826111d857634e487b7160e01b600052601260045260246000fd5b500490565b60008160001904831182151516156111f7576111f7611240565b500290565b60008282101561120e5761120e611240565b500390565b60008161122257611222611240565b506000190190565b634e487b7160e01b600052600160045260246000fd5b634e487b7160e01b600052601160045260246000fd5b634e487b7160e01b600052603260045260246000fd5b634e487b7160e01b600052604160045260246000fd5b6001600160a01b038116811461129757600080fd5b5056fea264697066735822122044b37841d977c8e81001640700cc6ad1298d34b8ffa3f1203c9bfcf0793bd68364736f6c63430008050033",
  "immutableReferences": {
    "8337": [
      {
        "length": 32,
        "start": 1041
      }
    ],
    "8339": [
      {
        "length": 32,
        "start": 355
      },
      {
        "length": 32,
        "start": 1469
      },
      {
        "length": 32,
        "start": 2261
      }
    ],
    "8342": [
      {
        "length": 32,
        "start": 562
      },
      {
        "length": 32,
        "start": 615
      },
      {
        "length": 32,
        "start": 684
      },
      {
        "length": 32,
        "start": 769
      },
      {
        "length": 32,
        "start": 863
      },
      {
        "length": 32,
        "start": 1552
      },
      {
        "length": 32,
        "start": 1691
      },
      {
        "length": 32,
        "start": 2017
      }
    ]
  },
  "source": "// SPDX-License-Identifier: GPL-3.0-or-later\npragma solidity >=0.8.4 <0.9.0;\n\nimport \"@openzeppelin/contracts/token/ERC20/IERC20.sol\";\nimport '../../core/interfaces/IPandaCallee.sol';\n\nimport '../libraries/PandaLibrary.sol';\nimport '../interfaces/V1/IUniswapV1Factory.sol';\nimport '../interfaces/V1/IUniswapV1Exchange.sol';\nimport '../interfaces/IPandaRouter01.sol';\nimport '../interfaces/IWETH.sol';\n\ncontract ExampleFlashSwap is IPandaCallee {\n    IUniswapV1Factory immutable factoryV1;\n    address immutable factory;\n    IWETH immutable WETH;\n\n    constructor(address _factory, address _factoryV1, address router){\n        factoryV1 = IUniswapV1Factory(_factoryV1);\n        factory = _factory;\n        WETH = IWETH(IPandaRouter01(router).WETH());\n    }\n\n    // needs to accept ETH from any V1 exchange and WETH. ideally this could be enforced, as in the router,\n    // but it's not possible because it requires a call to the v1 factory, which takes too much gas\n    receive() external payable {}\n\n    // gets tokens/WETH via a V2 flash swap, swaps for the ETH/tokens on V1, repays V2, and keeps the rest!\n    function pandaCall(address sender, uint amount0, uint amount1, bytes calldata data) external override {\n        address[] memory path = new address[](2);\n        uint amountToken;\n        uint amountETH;\n        { // scope for token{0,1}, avoids stack too deep errors\n        address token0 = IPandaPair(msg.sender).token0();\n        address token1 = IPandaPair(msg.sender).token1();\n        assert(msg.sender == PandaLibrary.pairFor(factory, token0, token1)); // ensure that msg.sender is actually a V2 pair\n        assert(amount0 == 0 || amount1 == 0); // this strategy is unidirectional\n        path[0] = amount0 == 0 ? token0 : token1;\n        path[1] = amount0 == 0 ? token1 : token0;\n        amountToken = token0 == address(WETH) ? amount1 : amount0;\n        amountETH = token0 == address(WETH) ? amount0 : amount1;\n        }\n\n        assert(path[0] == address(WETH) || path[1] == address(WETH)); // this strategy only works with a V2 WETH pair\n        IERC20 token = IERC20(path[0] == address(WETH) ? path[1] : path[0]);\n        IUniswapV1Exchange exchangeV1 = IUniswapV1Exchange(factoryV1.getExchange(address(token))); // get V1 exchange\n\n        if (amountToken > 0) {\n            (uint minETH) = abi.decode(data, (uint)); // slippage parameter for V1, passed in by caller\n            token.approve(address(exchangeV1), amountToken);\n            uint amountReceived = exchangeV1.tokenToEthSwapInput(amountToken, minETH, type(uint).max);\n            uint amountRequired = PandaLibrary.getAmountsIn(factory, amountToken, path)[0];\n            assert(amountReceived > amountRequired); // fail if we didn't get enough ETH back to repay our flash loan\n            WETH.deposit{value: amountRequired}();\n            assert(WETH.transfer(msg.sender, amountRequired)); // return WETH to V2 pair\n            (bool success,) = sender.call{value: amountReceived - amountRequired}(new bytes(0)); // keep the rest! (ETH)\n            assert(success);\n        } else {\n            (uint minTokens) = abi.decode(data, (uint)); // slippage parameter for V1, passed in by caller\n            WETH.withdraw(amountETH);\n            uint amountReceived = exchangeV1.ethToTokenSwapInput{value: amountETH}(minTokens, type(uint).max);\n            uint amountRequired = PandaLibrary.getAmountsIn(factory, amountETH, path)[0];\n            assert(amountReceived > amountRequired); // fail if we didn't get enough tokens back to repay our flash loan\n            assert(token.transfer(msg.sender, amountRequired)); // return tokens to V2 pair\n            assert(token.transfer(sender, amountReceived - amountRequired)); // keep the rest! (tokens)\n        }\n    }\n}\n",
  "sourcePath": "C:/Users/skyne/Dev/work/skynet/HungryPandaHome/pandaswap/contracts/periphery/examples/ExampleFlashSwap.sol",
  "compiler": {
    "name": "solc",
    "version": "0.8.5+commit.a4f2e591.Emscripten.clang"
  },
  "schemaVersion": "3.4.1",
  "updatedAt": "2021-06-11T09:03:34.492Z",
  "devdoc": {
    "kind": "dev",
    "methods": {},
    "version": 1
  },
  "userdoc": {
    "kind": "user",
    "methods": {},
    "version": 1
  }
}