{
  "contractName": "FixedPointTest",
  "abi": [
    {
      "inputs": [
        {
          "internalType": "uint112",
          "name": "x",
          "type": "uint112"
        }
      ],
      "name": "encode",
      "outputs": [
        {
          "components": [
            {
              "internalType": "uint224",
              "name": "_x",
              "type": "uint224"
            }
          ],
          "internalType": "struct FixedPoint.uq112x112",
          "name": "",
          "type": "tuple"
        }
      ],
      "stateMutability": "pure",
      "type": "function"
    },
    {
      "inputs": [
        {
          "internalType": "uint144",
          "name": "x",
          "type": "uint144"
        }
      ],
      "name": "encode144",
      "outputs": [
        {
          "components": [
            {
              "internalType": "uint256",
              "name": "_x",
              "type": "uint256"
            }
          ],
          "internalType": "struct FixedPoint.uq144x112",
          "name": "",
          "type": "tuple"
        }
      ],
      "stateMutability": "pure",
      "type": "function"
    },
    {
      "inputs": [
        {
          "components": [
            {
              "internalType": "uint224",
              "name": "_x",
              "type": "uint224"
            }
          ],
          "internalType": "struct FixedPoint.uq112x112",
          "name": "self",
          "type": "tuple"
        }
      ],
      "name": "decode",
      "outputs": [
        {
          "internalType": "uint112",
          "name": "",
          "type": "uint112"
        }
      ],
      "stateMutability": "pure",
      "type": "function"
    },
    {
      "inputs": [
        {
          "components": [
            {
              "internalType": "uint256",
              "name": "_x",
              "type": "uint256"
            }
          ],
          "internalType": "struct FixedPoint.uq144x112",
          "name": "self",
          "type": "tuple"
        }
      ],
      "name": "decode144",
      "outputs": [
        {
          "internalType": "uint144",
          "name": "",
          "type": "uint144"
        }
      ],
      "stateMutability": "pure",
      "type": "function"
    },
    {
      "inputs": [
        {
          "components": [
            {
              "internalType": "uint224",
              "name": "_x",
              "type": "uint224"
            }
          ],
          "internalType": "struct FixedPoint.uq112x112",
          "name": "self",
          "type": "tuple"
        },
        {
          "internalType": "uint256",
          "name": "y",
          "type": "uint256"
        }
      ],
      "name": "mul",
      "outputs": [
        {
          "components": [
            {
              "internalType": "uint256",
              "name": "_x",
              "type": "uint256"
            }
          ],
          "internalType": "struct FixedPoint.uq144x112",
          "name": "",
          "type": "tuple"
        }
      ],
      "stateMutability": "pure",
      "type": "function"
    },
    {
      "inputs": [
        {
          "components": [
            {
              "internalType": "uint224",
              "name": "_x",
              "type": "uint224"
            }
          ],
          "internalType": "struct FixedPoint.uq112x112",
          "name": "self",
          "type": "tuple"
        },
        {
          "internalType": "int256",
          "name": "y",
          "type": "int256"
        }
      ],
      "name": "muli",
      "outputs": [
        {
          "internalType": "int256",
          "name": "",
          "type": "int256"
        }
      ],
      "stateMutability": "pure",
      "type": "function"
    },
    {
      "inputs": [
        {
          "components": [
            {
              "internalType": "uint224",
              "name": "_x",
              "type": "uint224"
            }
          ],
          "internalType": "struct FixedPoint.uq112x112",
          "name": "self",
          "type": "tuple"
        },
        {
          "components": [
            {
              "internalType": "uint224",
              "name": "_x",
              "type": "uint224"
            }
          ],
          "internalType": "struct FixedPoint.uq112x112",
          "name": "other",
          "type": "tuple"
        }
      ],
      "name": "muluq",
      "outputs": [
        {
          "components": [
            {
              "internalType": "uint224",
              "name": "_x",
              "type": "uint224"
            }
          ],
          "internalType": "struct FixedPoint.uq112x112",
          "name": "",
          "type": "tuple"
        }
      ],
      "stateMutability": "pure",
      "type": "function"
    },
    {
      "inputs": [
        {
          "components": [
            {
              "internalType": "uint224",
              "name": "_x",
              "type": "uint224"
            }
          ],
          "internalType": "struct FixedPoint.uq112x112",
          "name": "self",
          "type": "tuple"
        },
        {
          "components": [
            {
              "internalType": "uint224",
              "name": "_x",
              "type": "uint224"
            }
          ],
          "internalType": "struct FixedPoint.uq112x112",
          "name": "other",
          "type": "tuple"
        }
      ],
      "name": "getGasCostOfMuluq",
      "outputs": [
        {
          "internalType": "uint256",
          "name": "",
          "type": "uint256"
        }
      ],
      "stateMutability": "view",
      "type": "function"
    },
    {
      "inputs": [
        {
          "components": [
            {
              "internalType": "uint224",
              "name": "_x",
              "type": "uint224"
            }
          ],
          "internalType": "struct FixedPoint.uq112x112",
          "name": "self",
          "type": "tuple"
        },
        {
          "components": [
            {
              "internalType": "uint224",
              "name": "_x",
              "type": "uint224"
            }
          ],
          "internalType": "struct FixedPoint.uq112x112",
          "name": "other",
          "type": "tuple"
        }
      ],
      "name": "divuq",
      "outputs": [
        {
          "components": [
            {
              "internalType": "uint224",
              "name": "_x",
              "type": "uint224"
            }
          ],
          "internalType": "struct FixedPoint.uq112x112",
          "name": "",
          "type": "tuple"
        }
      ],
      "stateMutability": "pure",
      "type": "function"
    },
    {
      "inputs": [
        {
          "components": [
            {
              "internalType": "uint224",
              "name": "_x",
              "type": "uint224"
            }
          ],
          "internalType": "struct FixedPoint.uq112x112",
          "name": "self",
          "type": "tuple"
        },
        {
          "components": [
            {
              "internalType": "uint224",
              "name": "_x",
              "type": "uint224"
            }
          ],
          "internalType": "struct FixedPoint.uq112x112",
          "name": "other",
          "type": "tuple"
        }
      ],
      "name": "getGasCostOfDivuq",
      "outputs": [
        {
          "internalType": "uint256",
          "name": "",
          "type": "uint256"
        }
      ],
      "stateMutability": "view",
      "type": "function"
    },
    {
      "inputs": [
        {
          "internalType": "uint112",
          "name": "numerator",
          "type": "uint112"
        },
        {
          "internalType": "uint112",
          "name": "denominator",
          "type": "uint112"
        }
      ],
      "name": "fraction",
      "outputs": [
        {
          "components": [
            {
              "internalType": "uint224",
              "name": "_x",
              "type": "uint224"
            }
          ],
          "internalType": "struct FixedPoint.uq112x112",
          "name": "",
          "type": "tuple"
        }
      ],
      "stateMutability": "pure",
      "type": "function"
    },
    {
      "inputs": [
        {
          "components": [
            {
              "internalType": "uint224",
              "name": "_x",
              "type": "uint224"
            }
          ],
          "internalType": "struct FixedPoint.uq112x112",
          "name": "self",
          "type": "tuple"
        }
      ],
      "name": "reciprocal",
      "outputs": [
        {
          "components": [
            {
              "internalType": "uint224",
              "name": "_x",
              "type": "uint224"
            }
          ],
          "internalType": "struct FixedPoint.uq112x112",
          "name": "",
          "type": "tuple"
        }
      ],
      "stateMutability": "pure",
      "type": "function"
    },
    {
      "inputs": [
        {
          "components": [
            {
              "internalType": "uint224",
              "name": "_x",
              "type": "uint224"
            }
          ],
          "internalType": "struct FixedPoint.uq112x112",
          "name": "self",
          "type": "tuple"
        }
      ],
      "name": "sqrt",
      "outputs": [
        {
          "components": [
            {
              "internalType": "uint224",
              "name": "_x",
              "type": "uint224"
            }
          ],
          "internalType": "struct FixedPoint.uq112x112",
          "name": "",
          "type": "tuple"
        }
      ],
      "stateMutability": "pure",
      "type": "function"
    },
    {
      "inputs": [
        {
          "components": [
            {
              "internalType": "uint224",
              "name": "_x",
              "type": "uint224"
            }
          ],
          "internalType": "struct FixedPoint.uq112x112",
          "name": "self",
          "type": "tuple"
        }
      ],
      "name": "getGasCostOfSqrt",
      "outputs": [
        {
          "internalType": "uint256",
          "name": "",
          "type": "uint256"
        }
      ],
      "stateMutability": "view",
      "type": "function"
    }
  ],
  "bytecode": "0x608060405234801561001057600080fd5b50611399806100206000396000f3fe608060405234801561001057600080fd5b50600436106100ea5760003560e01c8063892584511161008c578063c814e31411610066578063c814e31414610217578063ca2d02991461022a578063ca74fcc01461023d578063d993d3791461025057600080fd5b806389258451146101cf578063af35b769146101e2578063b1acad5c1461020457600080fd5b80634fd04a40116100c85780634fd04a40146101455780635a606689146101705780635f9f4c3b146101835780636d173f71146101ae57600080fd5b806331f92b13146100ef5780633f1626c81461011f5780634de4cf9214610132575b600080fd5b6101026100fd366004611058565b610263565b60405190516001600160e01b031681526020015b60405180910390f35b61010261012d366004611058565b61028f565b61010261014036600461114d565b6102b5565b610158610153366004611058565b6102d5565b6040516001600160701b039091168152602001610116565b61010261017e36600461109f565b6102f9565b610196610191366004611058565b61032e565b6040516001600160901b039091168152602001610116565b6101c16101bc36600461109f565b610349565b604051908152602001610116565b6101c16101dd366004611074565b610384565b6101f56101f0366004611074565b61039e565b60405190518152602001610116565b6101c1610212366004611058565b6103c5565b6101f5610225366004611177565b6103e9565b610102610238366004611132565b610420565b61010261024b36600461109f565b610459565b6101c161025e36600461109f565b61048e565b604080516020810190915260008152610289610284368490038401846110d4565b6104b5565b92915050565b6040805160208101909152600081526102896102b0368490038401846110d4565b610576565b6040805160208101909152600081526102ce8383610657565b9392505050565b60006102896102e9368490038401846110d4565b5160701c6001600160701b031690565b6040805160208101909152600081526102ce61031a368590038501856110d4565b610329368590038501856110d4565b610700565b60006102896103423684900384018461110e565b5160701c90565b6000805a9050610370610361368690038601866110d4565b610329368690038601866110d4565b505a61037c90826112be565b949350505050565b60006102ce610398368590038501856110d4565b836108ef565b6040805160208101909152600081526102ce6103bf368590038501856110d4565b83610990565b6000805a90506103dd6102b0368590038501856110d4565b505a6102ce90826112be565b60408051602080820183526000808352835180830185525282519081019092526001600160701b0319607084901b16825290610289565b6040805160208082018352600080835283518083018552528251908101909252600160701b600160e01b03607084901b16825290610289565b6040805160208101909152600081526102ce61047a368590038501856110d4565b610489368590038501856110d4565b610a2e565b6000805a90506103706104a6368690038601866110d4565b610489368690038601866110d4565b604080516020810190915260008152600182600001516001600160e01b03161161053d5760405162461bcd60e51b815260206004820152602e60248201527f4669786564506f696e743a204449565f42595f5a45524f5f5245434950524f4360448201526d414c5f4f525f4f564552464c4f5760901b60648201526084015b60405180910390fd5b604051806020016040528083600001516001600160e01b0316600160e01b610565919061123a565b6001600160e01b0316905292915050565b60408051602081019091526000815281516001600160901b036001600160e01b03909116116105c4576040518060200160405280610565607085600001516001600160e01b0316901b610c22565b60006105dc83600001516001600160e01b0316610c92565b6105e79060ff6112d5565b90506105f46002826112f8565b6105fe90826112d5565b90506040518060200160405280600283607061061a91906112d5565b610624919061124e565b60ff166106438460ff1687600001516001600160e01b0316901b610c22565b6001600160e01b03911b1690529392505050565b6040805160208101909152600081526000826001600160701b0316116106bf5760405162461bcd60e51b815260206004820181905260248201527f4669786564506f696e743a204449565f42595f5a45524f5f4652414354494f4e6044820152606401610534565b6040805160208101909152806106ee6001600160701b038516600160701b600160e01b03607088901b16611214565b6001600160e01b031690529392505050565b60408051602081019091526000815282516001600160e01b0316158061072e575081516001600160e01b0316155b156107485750604080516020810190915260008152610289565b825182516001600160701b03607083811c8216938216929081901c8216911660006107738386611270565b9050600061078d6001600160701b03808516908716611270565b905060006107a76001600160701b03808616908916611270565b905060006107c16001600160701b03808916908816611270565b90506001600160701b036001600160e01b03851611156108235760405162461bcd60e51b815260206004820181905260248201527f4669786564506f696e743a204d554c55515f4f564552464c4f575f55505045526044820152606401610534565b6000607084811c6001600160701b0316906001600160e01b038481169161085b9187169089901b600160701b600160e01b03166111d7565b61086591906111d7565b61086f91906111d7565b90506001600160e01b038111156108c85760405162461bcd60e51b815260206004820152601e60248201527f4669786564506f696e743a204d554c55515f4f564552464c4f575f53554d00006044820152606401610534565b60408051602081019091526001600160e01b0390911681529b9a5050505050505050505050565b60008061092484600001516001600160e01b031660008512610911578461091a565b61091a8561131a565b600160701b610db5565b9050600160ff1b81106109795760405162461bcd60e51b815260206004820152601960248201527f4669786564506f696e743a204d554c495f4f564552464c4f57000000000000006044820152606401610534565b60008312610987578061037c565b61037c8161131a565b60408051602081019091526000815260008215806109cd575083516001600160e01b0316836109bf818361129f565b92506109cb908361123a565b145b610a195760405162461bcd60e51b815260206004820152601860248201527f4669786564506f696e743a204d554c5f4f564552464c4f5700000000000000006044820152606401610534565b60408051602081019091529081529392505050565b60408051602081019091526000815281516001600160e01b0316610a945760405162461bcd60e51b815260206004820152601d60248201527f4669786564506f696e743a204449565f42595f5a45524f5f44495655510000006044820152606401610534565b815183516001600160e01b0390811691161415610ac357506040805160208101909152600160701b8152610289565b82516001600160901b036001600160e01b0390911611610b7f5781518351600091610b06916001600160e01b039091169060701b6001600160701b03191661123a565b90506001600160e01b03811115610b5f5760405162461bcd60e51b815260206004820152601a60248201527f4669786564506f696e743a2044495655515f4f564552464c4f570000000000006044820152606401610534565b6040518060200160405280826001600160e01b0316815250915050610289565b6000610baa600160701b85600001516001600160e01b031685600001516001600160e01b0316610db5565b90506001600160e01b03811115610c035760405162461bcd60e51b815260206004820152601a60248201527f4669786564506f696e743a2044495655515f4f564552464c4f570000000000006044820152606401610534565b60408051602081019091526001600160e01b0390911681529392505050565b60006003821115610c835750806000610c3c60028361123a565b610c479060016111d7565b90505b81811015610c7d57905080600281610c62818661123a565b610c6c91906111d7565b610c76919061123a565b9050610c4a565b50919050565b8115610c8d575060015b919050565b6000808211610cd35760405162461bcd60e51b815260206004820152600d60248201526c4269744d6174683a205a45524f60981b6044820152606401610534565b600160801b8210610cf157608091821c91610cee90826111ef565b90505b680100000000000000008210610d1457604091821c91610d1190826111ef565b90505b6401000000008210610d3357602091821c91610d3090826111ef565b90505b620100008210610d5057601091821c91610d4d90826111ef565b90505b6101008210610d6c57600891821c91610d6990826111ef565b90505b60108210610d8757600491821c91610d8490826111ef565b90505b60048210610da257600291821c91610d9f90826111ef565b90505b60028210610c8d576102896001826111ef565b6000806000610dc48686610e64565b9150915060008480610dd857610dd861134d565b868809905082811115610df357610df06001836112be565b91505b610dfd81846112be565b9250848210610e4e5760405162461bcd60e51b815260206004820152601a60248201527f46756c6c4d6174683a2046554c4c4449565f4f564552464c4f570000000000006044820152606401610534565b610e59838387610ea6565b979650505050505050565b600080806000198486099050610e7a848661129f565b9250610e8683826112be565b915082811015610e9e57610e9b6001836112be565b91505b509250929050565b600080610eb283611021565b83169050610ec0818461123a565b9250610ecc818661123a565b945080610ed882611021565b610ee2919061123a565b610eed9060016111d7565b610ef7908561129f565b610f0190866111d7565b94506001610f0f818561129f565b610f1a9060026112be565b610f24908261129f565b9050610f30818561129f565b610f3b9060026112be565b610f45908261129f565b9050610f51818561129f565b610f5c9060026112be565b610f66908261129f565b9050610f72818561129f565b610f7d9060026112be565b610f87908261129f565b9050610f93818561129f565b610f9e9060026112be565b610fa8908261129f565b9050610fb4818561129f565b610fbf9060026112be565b610fc9908261129f565b9050610fd5818561129f565b610fe09060026112be565b610fea908261129f565b9050610ff6818561129f565b6110019060026112be565b61100b908261129f565b9050611017818761129f565b9695505050505050565b6000610289821960016111d7565b600060208284031215610c7d57600080fd5b80356001600160701b0381168114610c8d57600080fd5b60006020828403121561106a57600080fd5b6102ce838361102f565b6000806040838503121561108757600080fd5b611091848461102f565b946020939093013593505050565b600080604083850312156110b257600080fd5b6110bc848461102f565b91506110cb846020850161102f565b90509250929050565b6000602082840312156110e657600080fd5b6110ee6111a0565b82356001600160e01b038116811461110557600080fd5b81529392505050565b60006020828403121561112057600080fd5b6111286111a0565b9135825250919050565b60006020828403121561114457600080fd5b6102ce82611041565b6000806040838503121561116057600080fd5b61116983611041565b91506110cb60208401611041565b60006020828403121561118957600080fd5b81356001600160901b03811681146102ce57600080fd5b6040516020810167ffffffffffffffff811182821017156111d157634e487b7160e01b600052604160045260246000fd5b60405290565b600082198211156111ea576111ea611337565b500190565b600060ff821660ff84168060ff0382111561120c5761120c611337565b019392505050565b60006001600160e01b038381168061122e5761122e61134d565b92169190910492915050565b6000826112495761124961134d565b500490565b600060ff8316806112615761126161134d565b8060ff84160491505092915050565b60006001600160e01b038281168482168115158284048211161561129657611296611337565b02949350505050565b60008160001904831182151516156112b9576112b9611337565b500290565b6000828210156112d0576112d0611337565b500390565b600060ff821660ff8416808210156112ef576112ef611337565b90039392505050565b600060ff83168061130b5761130b61134d565b8060ff84160691505092915050565b6000600160ff1b82141561133057611330611337565b5060000390565b634e487b7160e01b600052601160045260246000fd5b634e487b7160e01b600052601260045260246000fdfea26469706673582212209caed6f2b769f2c52342381d8bba78875ae5a3259d5ba31cefe2c878b4f36f6964736f6c63430008050033",
  "immutableReferences": {},
  "source": "// SPDX-License-Identifier: GPL-3.0-or-later\n\npragma solidity >=0.8.4 <0.9.0;\n\npragma abicoder v2;\n\nimport '../libraries/FixedPoint.sol';\n\ncontract FixedPointTest {\n    function encode(uint112 x) external pure returns (FixedPoint.uq112x112 memory) {\n        return FixedPoint.encode(x);\n    }\n\n    function encode144(uint144 x) external pure returns (FixedPoint.uq144x112 memory) {\n        return FixedPoint.encode144(x);\n    }\n\n    function decode(FixedPoint.uq112x112 calldata self) external pure returns (uint112) {\n        return FixedPoint.decode(self);\n    }\n\n    function decode144(FixedPoint.uq144x112 calldata self) external pure returns (uint144) {\n        return FixedPoint.decode144(self);\n    }\n\n    function mul(FixedPoint.uq112x112 calldata self, uint256 y) external pure returns (FixedPoint.uq144x112 memory) {\n        return FixedPoint.mul(self, y);\n    }\n\n    function muli(FixedPoint.uq112x112 calldata self, int256 y) external pure returns (int256) {\n        return FixedPoint.muli(self, y);\n    }\n\n    function muluq(FixedPoint.uq112x112 calldata self, FixedPoint.uq112x112 calldata other)\n        external\n        pure\n        returns (FixedPoint.uq112x112 memory)\n    {\n        return FixedPoint.muluq(self, other);\n    }\n\n    function getGasCostOfMuluq(FixedPoint.uq112x112 calldata self, FixedPoint.uq112x112 calldata other)\n        external\n        view\n        returns (uint256)\n    {\n        uint256 gasBefore = gasleft();\n        FixedPoint.muluq(self, other);\n        return gasBefore - gasleft();\n    }\n\n    function divuq(FixedPoint.uq112x112 calldata self, FixedPoint.uq112x112 calldata other)\n        external\n        pure\n        returns (FixedPoint.uq112x112 memory)\n    {\n        return FixedPoint.divuq(self, other);\n    }\n\n    function getGasCostOfDivuq(FixedPoint.uq112x112 calldata self, FixedPoint.uq112x112 calldata other)\n        external\n        view\n        returns (uint256)\n    {\n        uint256 gasBefore = gasleft();\n        FixedPoint.divuq(self, other);\n        return gasBefore - gasleft();\n    }\n\n    function fraction(uint112 numerator, uint112 denominator) external pure returns (FixedPoint.uq112x112 memory) {\n        return FixedPoint.fraction(numerator, denominator);\n    }\n\n    function reciprocal(FixedPoint.uq112x112 calldata self) external pure returns (FixedPoint.uq112x112 memory) {\n        return FixedPoint.reciprocal(self);\n    }\n\n    function sqrt(FixedPoint.uq112x112 calldata self) external pure returns (FixedPoint.uq112x112 memory) {\n        return FixedPoint.sqrt(self);\n    }\n\n    function getGasCostOfSqrt(FixedPoint.uq112x112 calldata self) external view returns (uint256) {\n        uint256 gasBefore = gasleft();\n        FixedPoint.sqrt(self);\n        return gasBefore - gasleft();\n    }\n}\n",
  "sourcePath": "C:/Users/skyne/Dev/work/skynet/HungryPandaHome/pandaswap/contracts/lib/test/FixedPointTest.sol",
  "compiler": {
    "name": "solc",
    "version": "0.8.5+commit.a4f2e591.Emscripten.clang"
  },
  "schemaVersion": "3.4.1",
  "updatedAt": "2021-06-11T09:03:34.415Z",
  "devdoc": {
    "kind": "dev",
    "methods": {},
    "version": 1
  },
  "userdoc": {
    "kind": "user",
    "methods": {},
    "version": 1
  }
}