{
  "contractName": "FullMathTest",
  "abi": [
    {
      "inputs": [
        {
          "internalType": "uint256",
          "name": "x",
          "type": "uint256"
        },
        {
          "internalType": "uint256",
          "name": "y",
          "type": "uint256"
        },
        {
          "internalType": "uint256",
          "name": "z",
          "type": "uint256"
        }
      ],
      "name": "mulDiv",
      "outputs": [
        {
          "internalType": "uint256",
          "name": "",
          "type": "uint256"
        }
      ],
      "stateMutability": "pure",
      "type": "function"
    },
    {
      "inputs": [
        {
          "internalType": "uint256",
          "name": "x",
          "type": "uint256"
        },
        {
          "internalType": "uint256",
          "name": "y",
          "type": "uint256"
        },
        {
          "internalType": "uint256",
          "name": "z",
          "type": "uint256"
        }
      ],
      "name": "mulDivRoundingUp",
      "outputs": [
        {
          "internalType": "uint256",
          "name": "",
          "type": "uint256"
        }
      ],
      "stateMutability": "pure",
      "type": "function"
    }
  ],
  "bytecode": "0x608060405234801561001057600080fd5b50610453806100206000396000f3fe608060405234801561001057600080fd5b50600436106100365760003560e01c80630af8b27f1461003b578063aa9a091214610060575b600080fd5b61004e610049366004610355565b610073565b60405190815260200160405180910390f35b61004e61006e366004610355565b6100bc565b6000806000838061008657610086610407565b8587091190508061009857600061009b565b60015b60ff166100a98686866100d1565b6100b39190610381565b95945050505050565b60006100c98484846100d1565b949350505050565b60008060006100e08686610184565b91509150600084806100f4576100f4610407565b86880990508281111561010f5761010c6001836103da565b91505b61011981846103da565b925084821061016e5760405162461bcd60e51b815260206004820152601a60248201527f46756c6c4d6174683a2046554c4c4449565f4f564552464c4f57000000000000604482015260640160405180910390fd5b6101798383876101c6565b979650505050505050565b60008080600019848609905061019a84866103bb565b92506101a683826103da565b9150828110156101be576101bb6001836103da565b91505b509250929050565b6000806101d283610341565b831690506101e08184610399565b92506101ec8186610399565b9450806101f882610341565b6102029190610399565b61020d906001610381565b61021790856103bb565b6102219086610381565b9450600161022f81856103bb565b61023a9060026103da565b61024490826103bb565b905061025081856103bb565b61025b9060026103da565b61026590826103bb565b905061027181856103bb565b61027c9060026103da565b61028690826103bb565b905061029281856103bb565b61029d9060026103da565b6102a790826103bb565b90506102b381856103bb565b6102be9060026103da565b6102c890826103bb565b90506102d481856103bb565b6102df9060026103da565b6102e990826103bb565b90506102f581856103bb565b6103009060026103da565b61030a90826103bb565b905061031681856103bb565b6103219060026103da565b61032b90826103bb565b905061033781876103bb565b9695505050505050565b600061034f82196001610381565b92915050565b60008060006060848603121561036a57600080fd5b505081359360208301359350604090920135919050565b60008219821115610394576103946103f1565b500190565b6000826103b657634e487b7160e01b600052601260045260246000fd5b500490565b60008160001904831182151516156103d5576103d56103f1565b500290565b6000828210156103ec576103ec6103f1565b500390565b634e487b7160e01b600052601160045260246000fd5b634e487b7160e01b600052601260045260246000fdfea2646970667358221220bf9a48dd603e9f957cbc660ae0afcd6e17c56cd9c9032342517fe4c3dbed6c7964736f6c63430008050033",
  "immutableReferences": {},
  "source": "// SPDX-License-Identifier: GPL-3.0-or-later\npragma solidity >=0.8.4 <0.9.0;\npragma abicoder v2;\n\nimport '../libraries/FullMath.sol';\n\ncontract FullMathTest {\n    function mulDiv(\n        uint256 x,\n        uint256 y,\n        uint256 z\n    ) external pure returns (uint256) {\n        return FullMath.mulDiv(x, y, z);\n    }\n\n    function mulDivRoundingUp(\n        uint256 x,\n        uint256 y,\n        uint256 z\n    ) external pure returns (uint256) {\n        bool roundUp = mulmod(x, y, z) > 0;\n        return FullMath.mulDiv(x, y, z) + (roundUp ? 1 : 0);\n    }\n}\n",
  "sourcePath": "C:/Users/skyne/Dev/work/skynet/HungryPandaHome/pandaswap/contracts/lib/test/FullMathTest.sol",
  "compiler": {
    "name": "solc",
    "version": "0.8.5+commit.a4f2e591.Emscripten.clang"
  },
  "schemaVersion": "3.4.1",
  "updatedAt": "2021-06-11T09:03:34.420Z",
  "devdoc": {
    "kind": "dev",
    "methods": {},
    "version": 1
  },
  "userdoc": {
    "kind": "user",
    "methods": {},
    "version": 1
  }
}