{
  "contractName": "LiquidityMigrator",
  "abi": [
    {
      "inputs": [
        {
          "internalType": "address",
          "name": "_router",
          "type": "address"
        },
        {
          "internalType": "address",
          "name": "_pair",
          "type": "address"
        },
        {
          "internalType": "address",
          "name": "_routerFork",
          "type": "address"
        },
        {
          "internalType": "address",
          "name": "_pairFork",
          "type": "address"
        },
        {
          "internalType": "address",
          "name": "_bonusToken",
          "type": "address"
        }
      ],
      "stateMutability": "nonpayable",
      "type": "constructor"
    },
    {
      "inputs": [],
      "name": "admin",
      "outputs": [
        {
          "internalType": "address",
          "name": "",
          "type": "address"
        }
      ],
      "stateMutability": "view",
      "type": "function"
    },
    {
      "inputs": [],
      "name": "bonusToken",
      "outputs": [
        {
          "internalType": "contract BonusToken",
          "name": "",
          "type": "address"
        }
      ],
      "stateMutability": "view",
      "type": "function"
    },
    {
      "inputs": [],
      "name": "migrationDone",
      "outputs": [
        {
          "internalType": "bool",
          "name": "",
          "type": "bool"
        }
      ],
      "stateMutability": "view",
      "type": "function"
    },
    {
      "inputs": [],
      "name": "pair",
      "outputs": [
        {
          "internalType": "contract IPandaPair",
          "name": "",
          "type": "address"
        }
      ],
      "stateMutability": "view",
      "type": "function"
    },
    {
      "inputs": [],
      "name": "pairFork",
      "outputs": [
        {
          "internalType": "contract IPandaPair",
          "name": "",
          "type": "address"
        }
      ],
      "stateMutability": "view",
      "type": "function"
    },
    {
      "inputs": [],
      "name": "router",
      "outputs": [
        {
          "internalType": "contract IPandaRouter02",
          "name": "",
          "type": "address"
        }
      ],
      "stateMutability": "view",
      "type": "function"
    },
    {
      "inputs": [],
      "name": "routerFork",
      "outputs": [
        {
          "internalType": "contract IPandaRouter02",
          "name": "",
          "type": "address"
        }
      ],
      "stateMutability": "view",
      "type": "function"
    },
    {
      "inputs": [
        {
          "internalType": "address",
          "name": "",
          "type": "address"
        }
      ],
      "name": "unclaimedBalances",
      "outputs": [
        {
          "internalType": "uint256",
          "name": "",
          "type": "uint256"
        }
      ],
      "stateMutability": "view",
      "type": "function"
    },
    {
      "inputs": [
        {
          "internalType": "uint256",
          "name": "amount",
          "type": "uint256"
        }
      ],
      "name": "deposit",
      "outputs": [],
      "stateMutability": "nonpayable",
      "type": "function"
    },
    {
      "inputs": [],
      "name": "migrate",
      "outputs": [],
      "stateMutability": "nonpayable",
      "type": "function"
    },
    {
      "inputs": [],
      "name": "claimLpTokens",
      "outputs": [],
      "stateMutability": "nonpayable",
      "type": "function"
    }
  ],
  "bytecode": "0x608060405234801561001057600080fd5b50604051610c2b380380610c2b83398101604081905261002f916100b9565b600080546001600160a01b03199081166001600160a01b0397881617909155600180548216958716959095179094556002805485169386169390931790925560038054841691851691909117905560048054831691909316179091556005805433921691909117905561011e565b80516001600160a01b03811681146100b457600080fd5b919050565b600080600080600060a086880312156100d157600080fd5b6100da8661009d565b94506100e86020870161009d565b93506100f66040870161009d565b92506101046060870161009d565b91506101126080870161009d565b90509295509295909350565b610afe8061012d6000396000f3fe608060405234801561001057600080fd5b50600436106100a95760003560e01c80638fd3ab80116100715780638fd3ab801461014f578063a8aa1b3114610159578063b6b55f251461016c578063c896c18c1461017f578063f851a44014610187578063f887ea401461019a57600080fd5b80630d81a570146100ae57806341d4a1ab146100d057806359201402146100fb578063766faf361461010e5780638bf6afaf14610121575b600080fd5b6007546100bb9060ff1681565b60405190151581526020015b60405180910390f35b6004546100e3906001600160a01b031681565b6040516001600160a01b0390911681526020016100c7565b6003546100e3906001600160a01b031681565b6002546100e3906001600160a01b031681565b61014161012f3660046109a3565b60066020526000908152604090205481565b6040519081526020016100c7565b6101576101ad565b005b6001546100e3906001600160a01b031681565b61015761017a366004610a06565b610746565b6101576108aa565b6005546100e3906001600160a01b031681565b6000546100e3906001600160a01b031681565b6005546001600160a01b031633146101f95760405162461bcd60e51b815260206004820152600a60248201526937b7363c9030b236b4b760b11b60448201526064015b60405180910390fd5b60075460ff16156102455760405162461bcd60e51b81526020600482015260166024820152756d6967726174696f6e20616c726561647920646f6e6560501b60448201526064016101f0565b60015460408051630dfe168160e01b815290516000926001600160a01b031691630dfe1681916004808301926020929190829003018186803b15801561028a57600080fd5b505afa15801561029e573d6000803e3d6000fd5b505050506040513d601f19601f820116820180604052508101906102c291906109c7565b90506000600160009054906101000a90046001600160a01b03166001600160a01b031663d21220a76040518163ffffffff1660e01b815260040160206040518083038186803b15801561031457600080fd5b505afa158015610328573d6000803e3d6000fd5b505050506040513d601f19601f8201168201806040525081019061034c91906109c7565b6001546040516370a0823160e01b81523060048201529192506000916001600160a01b03909116906370a082319060240160206040518083038186803b15801561039557600080fd5b505afa1580156103a9573d6000803e3d6000fd5b505050506040513d601f19601f820116820180604052508101906103cd9190610a1f565b60008054604051635d5155ef60e11b81526001600160a01b0387811660048301528681166024830152604482018590526064820184905260848201939093523060a48201524260c4820152929350169063baa2abde9060e4016040805180830381600087803b15801561043f57600080fd5b505af1158015610453573d6000803e3d6000fd5b505050506040513d601f19601f820116820180604052508101906104779190610a38565b50506040516370a0823160e01b81523060048201526000906001600160a01b038516906370a082319060240160206040518083038186803b1580156104bb57600080fd5b505afa1580156104cf573d6000803e3d6000fd5b505050506040513d601f19601f820116820180604052508101906104f39190610a1f565b6040516370a0823160e01b81523060048201529091506000906001600160a01b038516906370a082319060240160206040518083038186803b15801561053857600080fd5b505afa15801561054c573d6000803e3d6000fd5b505050506040513d601f19601f820116820180604052508101906105709190610a1f565b60025460405163095ea7b360e01b81526001600160a01b0391821660048201526024810185905291925086169063095ea7b390604401602060405180830381600087803b1580156105c057600080fd5b505af11580156105d4573d6000803e3d6000fd5b505050506040513d601f19601f820116820180604052508101906105f891906109e4565b5060025460405163095ea7b360e01b81526001600160a01b039182166004820152602481018390529085169063095ea7b390604401602060405180830381600087803b15801561064757600080fd5b505af115801561065b573d6000803e3d6000fd5b505050506040513d601f19601f8201168201806040525081019061067f91906109e4565b5060025460405162e8e33760e81b81526001600160a01b038781166004830152868116602483015260448201859052606482018490526084820185905260a482018490523060c48301524260e48301529091169063e8e337009061010401606060405180830381600087803b1580156106f757600080fd5b505af115801561070b573d6000803e3d6000fd5b505050506040513d601f19601f8201168201806040525081019061072f9190610a5c565b50506007805460ff19166001179055505050505050565b60075460ff16156107925760405162461bcd60e51b81526020600482015260166024820152756d6967726174696f6e20616c726561647920646f6e6560501b60448201526064016101f0565b6001546040516323b872dd60e01b8152336004820152306024820152604481018390526001600160a01b03909116906323b872dd90606401602060405180830381600087803b1580156107e457600080fd5b505af11580156107f8573d6000803e3d6000fd5b505050506040513d601f19601f8201168201806040525081019061081c91906109e4565b50600480546040516340c10f1960e01b81523392810192909252602482018390526001600160a01b0316906340c10f1990604401600060405180830381600087803b15801561086a57600080fd5b505af115801561087e573d6000803e3d6000fd5b505033600090815260066020526040812080548594509092506108a2908490610a8a565b909155505050565b33600052600660205260075460ff1615156001146109035760405162461bcd60e51b81526020600482015260166024820152751b5a59dc985d1a5bdb881b9bdd08191bdb99481e595d60521b60448201526064016101f0565b336000818152600660205260408082208054929055600354905163a9059cbb60e01b815260048101939093526024830182905290916001600160a01b039091169063a9059cbb90604401602060405180830381600087803b15801561096757600080fd5b505af115801561097b573d6000803e3d6000fd5b505050506040513d601f19601f8201168201806040525081019061099f91906109e4565b5050565b6000602082840312156109b557600080fd5b81356109c081610ab0565b9392505050565b6000602082840312156109d957600080fd5b81516109c081610ab0565b6000602082840312156109f657600080fd5b815180151581146109c057600080fd5b600060208284031215610a1857600080fd5b5035919050565b600060208284031215610a3157600080fd5b5051919050565b60008060408385031215610a4b57600080fd5b505080516020909101519092909150565b600080600060608486031215610a7157600080fd5b8351925060208401519150604084015190509250925092565b60008219821115610aab57634e487b7160e01b600052601160045260246000fd5b500190565b6001600160a01b0381168114610ac557600080fd5b5056fea2646970667358221220d8baf1f40c675b1cea8bb1a1013793dde8511e1a99181a51dd346c9f37dd45fe64736f6c63430008050033",
  "immutableReferences": {},
  "source": "// SPDX-License-Identifier: MIT\npragma solidity >=0.8.4 <0.9.0;\n\nimport '@openzeppelin/contracts/token/ERC20/IERC20.sol';\nimport '../periphery/interfaces/IPandaRouter02.sol';\nimport '../core/interfaces/IPandaPair.sol';\nimport './BonusToken.sol';\n\ncontract LiquidityMigrator {\n  IPandaRouter02 public router;\n  IPandaPair public pair;\n  IPandaRouter02 public routerFork;\n  IPandaPair public pairFork;\n  BonusToken public bonusToken;\n  address public admin;\n  mapping(address => uint) public unclaimedBalances;\n  bool public migrationDone;\n\n  constructor(\n    address _router, \n    address _pair, \n    address _routerFork,\n    address _pairFork,\n    address _bonusToken\n  ){\n    router = IPandaRouter02(_router);\n    pair = IPandaPair(_pair); \n    routerFork = IPandaRouter02(_routerFork);\n    pairFork = IPandaPair(_pairFork);\n    bonusToken = BonusToken(_bonusToken);\n    admin = msg.sender;\n  }\n\n  function deposit(uint amount) external {\n    require(migrationDone == false, 'migration already done');\n    pair.transferFrom(msg.sender, address(this), amount);\n    bonusToken.mint(msg.sender, amount);\n    unclaimedBalances[msg.sender] += amount;\n  }\n\n  function migrate() external {\n    require(msg.sender == admin, 'only admin');\n    require(migrationDone == false, 'migration already done');\n    IERC20 token0 = IERC20(pair.token0());\n    IERC20 token1 = IERC20(pair.token1());\n    uint totalBalance = pair.balanceOf(address(this));\n    router.removeLiquidity(\n      address(token0),\n      address(token1),\n      totalBalance,\n      0,\n      0,\n      address(this),\n      block.timestamp\n    );\n\n    uint token0Balance = token0.balanceOf(address(this));\n    uint token1Balance = token1.balanceOf(address(this));\n    token0.approve(address(routerFork), token0Balance); \n    token1.approve(address(routerFork), token1Balance); \n\n    routerFork.addLiquidity(\n      address(token0),\n      address(token1),\n      token0Balance,\n      token1Balance,\n      token0Balance,\n      token1Balance,\n      address(this),\n      block.timestamp\n    );\n    migrationDone = true;\n  }\n\n  function claimLpTokens() external {\n    require(unclaimedBalances[msg.sender] >= 0, 'no unclaimed balance');\n    require(migrationDone == true, 'migration not done yet');\n    uint amountToSend = unclaimedBalances[msg.sender];\n    unclaimedBalances[msg.sender] = 0;\n    pairFork.transfer(msg.sender, amountToSend);\n  }\n}",
  "sourcePath": "C:/Users/skyne/Dev/work/skynet/HungryPandaHome/pandaswap/contracts/migrator/LiquidityMigrator.sol",
  "compiler": {
    "name": "solc",
    "version": "0.8.5+commit.a4f2e591.Emscripten.clang"
  },
  "schemaVersion": "3.4.1",
  "updatedAt": "2021-06-11T12:12:32.375Z",
  "devdoc": {
    "kind": "dev",
    "methods": {},
    "version": 1
  },
  "userdoc": {
    "kind": "user",
    "methods": {},
    "version": 1
  }
}