{
  "contractName": "NamerTestFakeNoncompliantERC20",
  "abi": [
    {
      "inputs": [
        {
          "internalType": "bytes32",
          "name": "name_",
          "type": "bytes32"
        },
        {
          "internalType": "bytes32",
          "name": "symbol_",
          "type": "bytes32"
        }
      ],
      "stateMutability": "nonpayable",
      "type": "constructor"
    },
    {
      "inputs": [],
      "name": "name",
      "outputs": [
        {
          "internalType": "bytes32",
          "name": "",
          "type": "bytes32"
        }
      ],
      "stateMutability": "view",
      "type": "function"
    },
    {
      "inputs": [],
      "name": "symbol",
      "outputs": [
        {
          "internalType": "bytes32",
          "name": "",
          "type": "bytes32"
        }
      ],
      "stateMutability": "view",
      "type": "function"
    }
  ],
  "bytecode": "0x608060405234801561001057600080fd5b506040516100fe3803806100fe83398101604081905261002f9161003d565b600091909155600155610061565b6000806040838503121561005057600080fd5b505080516020909101519092909150565b608f8061006f6000396000f3fe6080604052348015600f57600080fd5b506004361060325760003560e01c806306fdde0314603757806395d89b41146051575b600080fd5b603f60005481565b60405190815260200160405180910390f35b603f6001548156fea264697066735822122050f9daf4f6603b3dde180fb5de117b1ac7b4c596e2160f2ad7b95de2dbf05b3164736f6c63430008050033",
  "immutableReferences": {},
  "source": "// SPDX-License-Identifier: GPL-3.0-or-later\npragma solidity >=0.8.4 <0.9.0;\npragma abicoder v2;\n\nimport '../libraries/SafeERC20Namer.sol';\n\n// used for testing the logic of token naming\ncontract SafeERC20NamerTest {\n    function tokenSymbol(address token) external view returns (string memory) {\n        return SafeERC20Namer.tokenSymbol(token);\n    }\n\n    function tokenName(address token) external view returns (string memory) {\n        return SafeERC20Namer.tokenName(token);\n    }\n}\n\n// does not implement name or symbol\ncontract NamerTestFakeOptionalERC20 {\n\n}\n\n// complies with ERC20 and returns strings\ncontract NamerTestFakeCompliantERC20 {\n    string public name;\n    string public symbol;\n\n    constructor(string memory name_, string memory symbol_){\n        name = name_;\n        symbol = symbol_;\n    }\n}\n\n// implements name and symbol but returns bytes32\ncontract NamerTestFakeNoncompliantERC20 {\n    bytes32 public name;\n    bytes32 public symbol;\n\n    constructor(bytes32 name_, bytes32 symbol_){\n        name = name_;\n        symbol = symbol_;\n    }\n}\n",
  "sourcePath": "C:/Users/skyne/Dev/work/skynet/HungryPandaHome/pandaswap/contracts/lib/test/SafeERC20NamerTest.sol",
  "compiler": {
    "name": "solc",
    "version": "0.8.5+commit.a4f2e591.Emscripten.clang"
  },
  "schemaVersion": "3.4.1",
  "updatedAt": "2021-06-11T09:03:34.429Z",
  "devdoc": {
    "kind": "dev",
    "methods": {},
    "version": 1
  },
  "userdoc": {
    "kind": "user",
    "methods": {},
    "version": 1
  }
}