{
  "contractName": "PairNamerTestFakeToken",
  "abi": [
    {
      "inputs": [
        {
          "internalType": "string",
          "name": "name_",
          "type": "string"
        },
        {
          "internalType": "string",
          "name": "symbol_",
          "type": "string"
        }
      ],
      "stateMutability": "nonpayable",
      "type": "constructor"
    },
    {
      "inputs": [],
      "name": "name",
      "outputs": [
        {
          "internalType": "string",
          "name": "",
          "type": "string"
        }
      ],
      "stateMutability": "view",
      "type": "function"
    },
    {
      "inputs": [],
      "name": "symbol",
      "outputs": [
        {
          "internalType": "string",
          "name": "",
          "type": "string"
        }
      ],
      "stateMutability": "view",
      "type": "function"
    }
  ],
  "bytecode": "0x608060405234801561001057600080fd5b5060405161042838038061042883398101604081905261002f916101a3565b815161004290600090602085019061005e565b50805161005690600190602084019061005e565b505050610257565b82805461006a90610206565b90600052602060002090601f01602090048101928261008c57600085556100d2565b82601f106100a557805160ff19168380011785556100d2565b828001600101855582156100d2579182015b828111156100d25782518255916020019190600101906100b7565b506100de9291506100e2565b5090565b5b808211156100de57600081556001016100e3565b600082601f83011261010857600080fd5b81516001600160401b038082111561012257610122610241565b604051601f8301601f19908116603f0116810190828211818310171561014a5761014a610241565b8160405283815260209250868385880101111561016657600080fd5b600091505b83821015610188578582018301518183018401529082019061016b565b838211156101995760008385830101525b9695505050505050565b600080604083850312156101b657600080fd5b82516001600160401b03808211156101cd57600080fd5b6101d9868387016100f7565b935060208501519150808211156101ef57600080fd5b506101fc858286016100f7565b9150509250929050565b600181811c9082168061021a57607f821691505b6020821081141561023b57634e487b7160e01b600052602260045260246000fd5b50919050565b634e487b7160e01b600052604160045260246000fd5b6101c2806102666000396000f3fe608060405234801561001057600080fd5b50600436106100365760003560e01c806306fdde031461003b57806395d89b4114610059575b600080fd5b610043610061565b60405161005091906100fc565b60405180910390f35b6100436100ef565b6000805461006e90610151565b80601f016020809104026020016040519081016040528092919081815260200182805461009a90610151565b80156100e75780601f106100bc576101008083540402835291602001916100e7565b820191906000526020600020905b8154815290600101906020018083116100ca57829003601f168201915b505050505081565b6001805461006e90610151565b600060208083528351808285015260005b818110156101295785810183015185820160400152820161010d565b8181111561013b576000604083870101525b50601f01601f1916929092016040019392505050565b600181811c9082168061016557607f821691505b6020821081141561018657634e487b7160e01b600052602260045260246000fd5b5091905056fea2646970667358221220fa2a6e4221b4728e55f4afb065fe4fdae9133f4abf4692d1bd2d3b6bb68d585864736f6c63430008050033",
  "immutableReferences": {},
  "source": "// SPDX-License-Identifier: GPL-3.0-or-later\npragma solidity >=0.8.4 <0.9.0;\npragma abicoder v2;\n\nimport '../libraries/PairNamer.sol';\n\ncontract PairNamerTest {\n    function pairName(\n        address token0,\n        address token1,\n        string calldata prefix,\n        string calldata suffix\n    ) external view returns (string memory) {\n        return PairNamer.pairName(token0, token1, prefix, suffix);\n    }\n\n    function pairSymbol(\n        address token0,\n        address token1,\n        string calldata suffix\n    ) external view returns (string memory) {\n        return PairNamer.pairSymbol(token0, token1, suffix);\n    }\n}\n\n// we do not test with non compliant ERC20 implementations because that's handled by token namer\ncontract PairNamerTestFakeToken {\n    string public name;\n    string public symbol;\n\n    constructor(string memory name_, string memory symbol_) {\n        name = name_;\n        symbol = symbol_;\n    }\n}\n",
  "sourcePath": "C:/Users/skyne/Dev/work/skynet/HungryPandaHome/pandaswap/contracts/lib/test/PairNamerTest.sol",
  "compiler": {
    "name": "solc",
    "version": "0.8.5+commit.a4f2e591.Emscripten.clang"
  },
  "schemaVersion": "3.4.1",
  "updatedAt": "2021-06-11T09:03:34.425Z",
  "devdoc": {
    "kind": "dev",
    "methods": {},
    "version": 1
  },
  "userdoc": {
    "kind": "user",
    "methods": {},
    "version": 1
  }
}