{
  "contractName": "PairNamerTest",
  "abi": [
    {
      "inputs": [
        {
          "internalType": "address",
          "name": "token0",
          "type": "address"
        },
        {
          "internalType": "address",
          "name": "token1",
          "type": "address"
        },
        {
          "internalType": "string",
          "name": "prefix",
          "type": "string"
        },
        {
          "internalType": "string",
          "name": "suffix",
          "type": "string"
        }
      ],
      "name": "pairName",
      "outputs": [
        {
          "internalType": "string",
          "name": "",
          "type": "string"
        }
      ],
      "stateMutability": "view",
      "type": "function"
    },
    {
      "inputs": [
        {
          "internalType": "address",
          "name": "token0",
          "type": "address"
        },
        {
          "internalType": "address",
          "name": "token1",
          "type": "address"
        },
        {
          "internalType": "string",
          "name": "suffix",
          "type": "string"
        }
      ],
      "name": "pairSymbol",
      "outputs": [
        {
          "internalType": "string",
          "name": "",
          "type": "string"
        }
      ],
      "stateMutability": "view",
      "type": "function"
    }
  ],
  "bytecode": "0x608060405234801561001057600080fd5b50610b65806100206000396000f3fe608060405234801561001057600080fd5b50600436106100365760003560e01c80634c75e9181461003b578063e9f52d2314610064575b600080fd5b61004e610049366004610767565b610077565b60405161005b919061099b565b60405180910390f35b61004e6100723660046107c8565b6100c3565b60606100ba858585858080601f01602080910402602001604051908101604052809392919081815260200183838082843760009201919091525061014592505050565b95945050505050565b606061013a878787878080601f01602080910402602001604051908101604052809392919081815260200183838082843760009201919091525050604080516020601f8b0181900481028201810190925289815292508991508890819084018382808284376000920191909152506101bd92505050565b979650505050505050565b6060604051806040016040528060048152602001633c27e42f60e21b81525061016d8561021a565b604051806040016040528060018152602001601d60f91b8152506101908661021a565b856040516020016101a5959493929190610930565b60405160208183030381529060405290509392505050565b6060826101c986610251565b604051806040016040528060018152602001601d60f91b8152506101ec87610251565b85604051602001610201959493929190610930565b6040516020818303038152906040529050949350505050565b6060600061022f836395d89b4160e01b61027b565b905080516000141561024b57610244836103a8565b9392505050565b92915050565b60606000610266836306fdde0360e01b61027b565b905080516000141561024b57610244836103b5565b60408051600481526024810182526020810180516001600160e01b03166001600160e01b03198516179052905160609160009182916001600160a01b038716916102c59190610914565b600060405180830381855afa9150503d8060008114610300576040519150601f19603f3d011682016040523d82523d6000602084013e610305565b606091505b509150915081158061031657508051155b1561033457604051806020016040528060008152509250505061024b565b805160201415610369576000818060200190518101906103549190610859565b905061035f816103c2565b935050505061024b565b60408151111561039057808060200190518101906103879190610872565b9250505061024b565b50506040805160208101909152600081529392505050565b606061024b82600661051e565b606061024b82602861051e565b604080516020808252818301909252606091600091906020820181803683370190505090506000805b602081101561046957600085826020811061040857610408610b03565b1a60f81b90506001600160f81b0319811615610456578084848151811061043157610431610b03565b60200101906001600160f81b031916908160001a9053508261045281610aa8565b9350505b508061046181610aa8565b9150506103eb565b5060008167ffffffffffffffff81111561048557610485610b19565b6040519080825280601f01601f1916602001820160405280156104af576020820181803683370190505b50905060005b82811015610515578381815181106104cf576104cf610b03565b602001015160f81c60f81b8282815181106104ec576104ec610b03565b60200101906001600160f81b031916908160001a9053508061050d81610aa8565b9150506104b5565b50949350505050565b606061052b600283610ac3565b1580156105385750600082115b8015610545575060288211155b6105955760405162461bcd60e51b815260206004820152601e60248201527f41646472657373537472696e675574696c3a20494e56414c49445f4c454e0000604482015260640160405180910390fd5b60008267ffffffffffffffff8111156105b0576105b0610b19565b6040519080825280601f01601f1916602001820160405280156105da576020820181803683370190505b5090506001600160a01b03841660005b6105f5600286610a0b565b8110156106cb576000610609826013610a3e565b610614906008610a1f565b83901c9050600f600482901c16600061063060f0841684610a55565b905061063b826106d5565b86610647866002610a1f565b8151811061065757610657610b03565b60200101906001600160f81b031916908160001a905350610677816106d5565b86610683866002610a1f565b61068e9060016109ce565b8151811061069e5761069e610b03565b60200101906001600160f81b031916908160001a90535050505080806106c390610aa8565b9150506105ea565b5090949350505050565b6000600a8260ff1610156106f7576106ee8260306109e6565b60f81b92915050565b6106ee8260376109e6565b919050565b80356001600160a01b038116811461070257600080fd5b60008083601f84011261073057600080fd5b50813567ffffffffffffffff81111561074857600080fd5b60208301915083602082850101111561076057600080fd5b9250929050565b6000806000806060858703121561077d57600080fd5b61078685610707565b935061079460208601610707565b9250604085013567ffffffffffffffff8111156107b057600080fd5b6107bc8782880161071e565b95989497509550505050565b600080600080600080608087890312156107e157600080fd5b6107ea87610707565b95506107f860208801610707565b9450604087013567ffffffffffffffff8082111561081557600080fd5b6108218a838b0161071e565b9096509450606089013591508082111561083a57600080fd5b5061084789828a0161071e565b979a9699509497509295939492505050565b60006020828403121561086b57600080fd5b5051919050565b60006020828403121561088457600080fd5b815167ffffffffffffffff8082111561089c57600080fd5b818401915084601f8301126108b057600080fd5b8151818111156108c2576108c2610b19565b604051601f8201601f19908116603f011681019083821181831017156108ea576108ea610b19565b8160405282815287602084870101111561090357600080fd5b61013a836020830160208801610a78565b60008251610926818460208701610a78565b9190910192915050565b60008651610942818460208b01610a78565b865190830190610956818360208b01610a78565b8651910190610969818360208a01610a78565b855191019061097c818360208901610a78565b845191019061098f818360208801610a78565b01979650505050505050565b60208152600082518060208401526109ba816040850160208701610a78565b601f01601f19169190910160400192915050565b600082198211156109e1576109e1610ad7565b500190565b600060ff821660ff84168060ff03821115610a0357610a03610ad7565b019392505050565b600082610a1a57610a1a610aed565b500490565b6000816000190483118215151615610a3957610a39610ad7565b500290565b600082821015610a5057610a50610ad7565b500390565b600060ff821660ff841680821015610a6f57610a6f610ad7565b90039392505050565b60005b83811015610a93578181015183820152602001610a7b565b83811115610aa2576000848401525b50505050565b6000600019821415610abc57610abc610ad7565b5060010190565b600082610ad257610ad2610aed565b500690565b634e487b7160e01b600052601160045260246000fd5b634e487b7160e01b600052601260045260246000fd5b634e487b7160e01b600052603260045260246000fd5b634e487b7160e01b600052604160045260246000fdfea2646970667358221220aee54deffdecdcbb1bb5b99423a5ac758f1d39f3c04aa614076ad3ecef564cc864736f6c63430008050033",
  "immutableReferences": {},
  "source": "// SPDX-License-Identifier: GPL-3.0-or-later\npragma solidity >=0.8.4 <0.9.0;\npragma abicoder v2;\n\nimport '../libraries/PairNamer.sol';\n\ncontract PairNamerTest {\n    function pairName(\n        address token0,\n        address token1,\n        string calldata prefix,\n        string calldata suffix\n    ) external view returns (string memory) {\n        return PairNamer.pairName(token0, token1, prefix, suffix);\n    }\n\n    function pairSymbol(\n        address token0,\n        address token1,\n        string calldata suffix\n    ) external view returns (string memory) {\n        return PairNamer.pairSymbol(token0, token1, suffix);\n    }\n}\n\n// we do not test with non compliant ERC20 implementations because that's handled by token namer\ncontract PairNamerTestFakeToken {\n    string public name;\n    string public symbol;\n\n    constructor(string memory name_, string memory symbol_) {\n        name = name_;\n        symbol = symbol_;\n    }\n}\n",
  "sourcePath": "C:/Users/skyne/Dev/work/skynet/HungryPandaHome/pandaswap/contracts/lib/test/PairNamerTest.sol",
  "compiler": {
    "name": "solc",
    "version": "0.8.5+commit.a4f2e591.Emscripten.clang"
  },
  "schemaVersion": "3.4.1",
  "updatedAt": "2021-06-11T09:03:34.422Z",
  "devdoc": {
    "kind": "dev",
    "methods": {},
    "version": 1
  },
  "userdoc": {
    "kind": "user",
    "methods": {},
    "version": 1
  }
}