{
  "contractName": "PandaMigrator",
  "abi": [
    {
      "inputs": [
        {
          "internalType": "address",
          "name": "_factoryV1",
          "type": "address"
        },
        {
          "internalType": "address",
          "name": "_router",
          "type": "address"
        }
      ],
      "stateMutability": "nonpayable",
      "type": "constructor"
    },
    {
      "stateMutability": "payable",
      "type": "receive"
    },
    {
      "inputs": [
        {
          "internalType": "address",
          "name": "token",
          "type": "address"
        },
        {
          "internalType": "uint256",
          "name": "amountTokenMin",
          "type": "uint256"
        },
        {
          "internalType": "uint256",
          "name": "amountETHMin",
          "type": "uint256"
        },
        {
          "internalType": "address",
          "name": "to",
          "type": "address"
        },
        {
          "internalType": "uint256",
          "name": "deadline",
          "type": "uint256"
        }
      ],
      "name": "migrate",
      "outputs": [],
      "stateMutability": "nonpayable",
      "type": "function"
    }
  ],
  "bytecode": "0x60c060405234801561001057600080fd5b506040516109c13803806109c183398101604081905261002f91610069565b6001600160601b0319606092831b8116608052911b1660a05261009c565b80516001600160a01b038116811461006457600080fd5b919050565b6000806040838503121561007c57600080fd5b6100858361004d565b91506100936020840161004d565b90509250929050565b60805160601c60a05160601c6108ed6100d4600039600081816102da0152818161034701526103d801526000607201526108ed6000f3fe6080604052600436106100225760003560e01c8063b7df1d251461002e57600080fd5b3661002957005b600080fd5b34801561003a57600080fd5b5061004e610049366004610760565b610050565b005b6040516303795fb160e11b81526001600160a01b0386811660048301526000917f0000000000000000000000000000000000000000000000000000000000000000909116906306f2bf629060240160206040518083038186803b1580156100b657600080fd5b505afa1580156100ca573d6000803e3d6000fd5b505050506040513d601f19601f820116820180604052508101906100ee919061073c565b6040516370a0823160e01b81523360048201529091506000906001600160a01b038316906370a082319060240160206040518083038186803b15801561013357600080fd5b505afa158015610147573d6000803e3d6000fd5b505050506040513d601f19601f8201168201806040525081019061016b91906107d4565b6040516323b872dd60e01b8152336004820152306024820152604481018290529091506001600160a01b038316906323b872dd90606401602060405180830381600087803b1580156101bc57600080fd5b505af11580156101d0573d6000803e3d6000fd5b505050506040513d601f19601f820116820180604052508101906101f491906107b2565b61023c5760405162461bcd60e51b81526020600482015260146024820152731514905394d1915497d19493d357d1905253115160621b60448201526064015b60405180910390fd5b604051637c45f8ad60e11b8152600481018290526001602482018190526044820152600019606482015260009081906001600160a01b0385169063f88bf15a906084016040805180830381600087803b15801561029857600080fd5b505af11580156102ac573d6000803e3d6000fd5b505050506040513d601f19601f820116820180604052508101906102d091906107ed565b915091506102ff897f00000000000000000000000000000000000000000000000000000000000000008361043f565b60405163f305d71960e01b81526001600160a01b038a8116600483015260248201839052604482018a905260648201899052878116608483015260a4820187905260009182917f0000000000000000000000000000000000000000000000000000000000000000169063f305d71990869060c4016060604051808303818588803b15801561038c57600080fd5b505af11580156103a0573d6000803e3d6000fd5b50505050506040513d601f19601f820116820180604052508101906103c59190610811565b509150915081831115610417576103fe8b7f0000000000000000000000000000000000000000000000000000000000000000600061043f565b6104128b3361040d858761087a565b61055a565b610432565b80841115610432576104323361042d838761087a565b61066e565b5050505050505050505050565b604080516001600160a01b038481166024830152604480830185905283518084039091018152606490920183526020820180516001600160e01b031663095ea7b360e01b179052915160009283929087169161049b919061083f565b6000604051808303816000865af19150503d80600081146104d8576040519150601f19603f3d011682016040523d82523d6000602084013e6104dd565b606091505b509150915081801561050757508051158061050757508080602001905181019061050791906107b2565b6105535760405162461bcd60e51b815260206004820152601e60248201527f5472616e7366657248656c7065723a20415050524f56455f4641494c454400006044820152606401610233565b5050505050565b604080516001600160a01b038481166024830152604480830185905283518084039091018152606490920183526020820180516001600160e01b031663a9059cbb60e01b17905291516000928392908716916105b6919061083f565b6000604051808303816000865af19150503d80600081146105f3576040519150601f19603f3d011682016040523d82523d6000602084013e6105f8565b606091505b509150915081801561062257508051158061062257508080602001905181019061062291906107b2565b6105535760405162461bcd60e51b815260206004820152601f60248201527f5472616e7366657248656c7065723a205452414e534645525f4641494c4544006044820152606401610233565b604080516000808252602082019092526001600160a01b038416908390604051610698919061083f565b60006040518083038185875af1925050503d80600081146106d5576040519150601f19603f3d011682016040523d82523d6000602084013e6106da565b606091505b50509050806107375760405162461bcd60e51b815260206004820152602360248201527f5472616e7366657248656c7065723a204554485f5452414e534645525f46414960448201526213115160ea1b6064820152608401610233565b505050565b60006020828403121561074e57600080fd5b81516107598161089f565b9392505050565b600080600080600060a0868803121561077857600080fd5b85356107838161089f565b9450602086013593506040860135925060608601356107a18161089f565b949793965091946080013592915050565b6000602082840312156107c457600080fd5b8151801515811461075957600080fd5b6000602082840312156107e657600080fd5b5051919050565b6000806040838503121561080057600080fd5b505080516020909101519092909150565b60008060006060848603121561082657600080fd5b8351925060208401519150604084015190509250925092565b6000825160005b818110156108605760208186018101518583015201610846565b8181111561086f576000828501525b509190910192915050565b60008282101561089a57634e487b7160e01b600052601160045260246000fd5b500390565b6001600160a01b03811681146108b457600080fd5b5056fea264697066735822122023195109486d208428000f6fc5c695d506925eeddf8840131814599e863db89a64736f6c63430008050033",
  "immutableReferences": {
    "4666": [
      {
        "length": 32,
        "start": 114
      }
    ],
    "4669": [
      {
        "length": 32,
        "start": 730
      },
      {
        "length": 32,
        "start": 839
      },
      {
        "length": 32,
        "start": 984
      }
    ]
  },
  "source": "// SPDX-License-Identifier: MIT\npragma solidity >=0.8.4 <0.9.0;\n\n\nimport '../lib/libraries/TransferHelper.sol';\n\nimport './interfaces/IPandaMigrator.sol';\nimport './interfaces/V1/IUniswapV1Factory.sol';\nimport './interfaces/V1/IUniswapV1Exchange.sol';\nimport './interfaces/IPandaRouter01.sol';\n\n\ncontract PandaMigrator is IPandaMigrator {\n    IUniswapV1Factory immutable factoryV1;\n    IPandaRouter01 immutable router;\n\n    constructor(address _factoryV1, address _router){\n        factoryV1 = IUniswapV1Factory(_factoryV1);\n        router = IPandaRouter01(_router);\n    }\n\n    // needs to accept ETH from any v1 exchange and the router. ideally this could be enforced, as in the router,\n    // but it's not possible because it requires a call to the v1 factory, which takes too much gas\n    receive() external payable {}\n\n    function migrate(address token, uint amountTokenMin, uint amountETHMin, address to, uint deadline)\n        external\n        override\n    {\n        IUniswapV1Exchange exchangeV1 = IUniswapV1Exchange(factoryV1.getExchange(token));\n        uint liquidityV1 = exchangeV1.balanceOf(msg.sender);\n        require(exchangeV1.transferFrom(msg.sender, address(this), liquidityV1), 'TRANSFER_FROM_FAILED');\n        (uint amountETHV1, uint amountTokenV1) = exchangeV1.removeLiquidity(liquidityV1, 1, 1, type(uint).max);\n        TransferHelper.safeApprove(token, address(router), amountTokenV1);\n        (uint amountTokenV2, uint amountETHV2,) = router.addLiquidityETH{value: amountETHV1}(\n            token,\n            amountTokenV1,\n            amountTokenMin,\n            amountETHMin,\n            to,\n            deadline\n        );\n        if (amountTokenV1 > amountTokenV2) {\n            TransferHelper.safeApprove(token, address(router), 0); // be a good blockchain citizen, reset allowance to 0\n            TransferHelper.safeTransfer(token, msg.sender, amountTokenV1 - amountTokenV2);\n        } else if (amountETHV1 > amountETHV2) {\n            // addLiquidityETH guarantees that all of amountETHV1 or amountTokenV1 will be used, hence this else is safe\n            TransferHelper.safeTransferETH(msg.sender, amountETHV1 - amountETHV2);\n        }\n    }\n}\n",
  "sourcePath": "C:/Users/skyne/Dev/work/skynet/HungryPandaHome/pandaswap/contracts/periphery/PandaMigrator.sol",
  "compiler": {
    "name": "solc",
    "version": "0.8.5+commit.a4f2e591.Emscripten.clang"
  },
  "schemaVersion": "3.4.1",
  "updatedAt": "2021-06-11T09:03:34.445Z",
  "devdoc": {
    "kind": "dev",
    "methods": {},
    "version": 1
  },
  "userdoc": {
    "kind": "user",
    "methods": {},
    "version": 1
  }
}