{
  "contractName": "RouterEventEmitter",
  "abi": [
    {
      "anonymous": false,
      "inputs": [
        {
          "indexed": false,
          "internalType": "uint256[]",
          "name": "amounts",
          "type": "uint256[]"
        }
      ],
      "name": "Amounts",
      "type": "event"
    },
    {
      "stateMutability": "payable",
      "type": "receive"
    },
    {
      "inputs": [
        {
          "internalType": "address",
          "name": "router",
          "type": "address"
        },
        {
          "internalType": "uint256",
          "name": "amountIn",
          "type": "uint256"
        },
        {
          "internalType": "uint256",
          "name": "amountOutMin",
          "type": "uint256"
        },
        {
          "internalType": "address[]",
          "name": "path",
          "type": "address[]"
        },
        {
          "internalType": "address",
          "name": "to",
          "type": "address"
        },
        {
          "internalType": "uint256",
          "name": "deadline",
          "type": "uint256"
        }
      ],
      "name": "swapExactTokensForTokens",
      "outputs": [],
      "stateMutability": "nonpayable",
      "type": "function"
    },
    {
      "inputs": [
        {
          "internalType": "address",
          "name": "router",
          "type": "address"
        },
        {
          "internalType": "uint256",
          "name": "amountOut",
          "type": "uint256"
        },
        {
          "internalType": "uint256",
          "name": "amountInMax",
          "type": "uint256"
        },
        {
          "internalType": "address[]",
          "name": "path",
          "type": "address[]"
        },
        {
          "internalType": "address",
          "name": "to",
          "type": "address"
        },
        {
          "internalType": "uint256",
          "name": "deadline",
          "type": "uint256"
        }
      ],
      "name": "swapTokensForExactTokens",
      "outputs": [],
      "stateMutability": "nonpayable",
      "type": "function"
    },
    {
      "inputs": [
        {
          "internalType": "address",
          "name": "router",
          "type": "address"
        },
        {
          "internalType": "uint256",
          "name": "amountOutMin",
          "type": "uint256"
        },
        {
          "internalType": "address[]",
          "name": "path",
          "type": "address[]"
        },
        {
          "internalType": "address",
          "name": "to",
          "type": "address"
        },
        {
          "internalType": "uint256",
          "name": "deadline",
          "type": "uint256"
        }
      ],
      "name": "swapExactETHForTokens",
      "outputs": [],
      "stateMutability": "payable",
      "type": "function"
    },
    {
      "inputs": [
        {
          "internalType": "address",
          "name": "router",
          "type": "address"
        },
        {
          "internalType": "uint256",
          "name": "amountOut",
          "type": "uint256"
        },
        {
          "internalType": "uint256",
          "name": "amountInMax",
          "type": "uint256"
        },
        {
          "internalType": "address[]",
          "name": "path",
          "type": "address[]"
        },
        {
          "internalType": "address",
          "name": "to",
          "type": "address"
        },
        {
          "internalType": "uint256",
          "name": "deadline",
          "type": "uint256"
        }
      ],
      "name": "swapTokensForExactETH",
      "outputs": [],
      "stateMutability": "nonpayable",
      "type": "function"
    },
    {
      "inputs": [
        {
          "internalType": "address",
          "name": "router",
          "type": "address"
        },
        {
          "internalType": "uint256",
          "name": "amountIn",
          "type": "uint256"
        },
        {
          "internalType": "uint256",
          "name": "amountOutMin",
          "type": "uint256"
        },
        {
          "internalType": "address[]",
          "name": "path",
          "type": "address[]"
        },
        {
          "internalType": "address",
          "name": "to",
          "type": "address"
        },
        {
          "internalType": "uint256",
          "name": "deadline",
          "type": "uint256"
        }
      ],
      "name": "swapExactTokensForETH",
      "outputs": [],
      "stateMutability": "nonpayable",
      "type": "function"
    },
    {
      "inputs": [
        {
          "internalType": "address",
          "name": "router",
          "type": "address"
        },
        {
          "internalType": "uint256",
          "name": "amountOut",
          "type": "uint256"
        },
        {
          "internalType": "address[]",
          "name": "path",
          "type": "address[]"
        },
        {
          "internalType": "address",
          "name": "to",
          "type": "address"
        },
        {
          "internalType": "uint256",
          "name": "deadline",
          "type": "uint256"
        }
      ],
      "name": "swapETHForExactTokens",
      "outputs": [],
      "stateMutability": "payable",
      "type": "function"
    }
  ],
  "bytecode": "0x608060405234801561001057600080fd5b506107b5806100206000396000f3fe6080604052600436106100595760003560e01c806322b5841014610065578063375734d9146100875780639c91fcb5146100a7578063b05f579e146100c7578063fa3219d5146100da578063fde1adda146100fa57600080fd5b3661006057005b600080fd5b34801561007157600080fd5b506100856100803660046104d1565b61010d565b005b34801561009357600080fd5b506100856100a23660046104d1565b610222565b3480156100b357600080fd5b506100856100c23660046104d1565b610252565b6100856100d536600461045a565b610282565b3480156100e657600080fd5b506100856100f53660046104d1565b610394565b61008561010836600461045a565b6103c4565b600080886001600160a01b0316638803dbee60e01b89898989898960405160240161013d96959493929190610715565b60408051601f198184030181529181526020820180516001600160e01b03166001600160e01b031990941693909317909252905161017b919061065f565b600060405180830381855af49150503d80600081146101b6576040519150601f19603f3d011682016040523d82523d6000602084013e6101bb565b606091505b5091509150816101cd576101cd610753565b7f4cc17991e3610e3400e74a8306aa421daaee1e3446fa22b490604610999e10b3818060200190518101906102029190610553565b60405161020f919061069a565b60405180910390a1505050505050505050565b600080886001600160a01b03166338ed173960e01b89898989898960405160240161013d96959493929190610715565b600080886001600160a01b03166318cbafe560e01b89898989898960405160240161013d96959493929190610715565b600080876001600160a01b031663fb3bdb4160e01b88888888886040516024016102b09594939291906106de565b60408051601f198184030181529181526020820180516001600160e01b03166001600160e01b03199094169390931790925290516102ee919061065f565b600060405180830381855af49150503d8060008114610329576040519150601f19603f3d011682016040523d82523d6000602084013e61032e565b606091505b50915091508161034057610340610753565b7f4cc17991e3610e3400e74a8306aa421daaee1e3446fa22b490604610999e10b3818060200190518101906103759190610553565b604051610382919061069a565b60405180910390a15050505050505050565b600080886001600160a01b0316634a25d94a60e01b89898989898960405160240161013d96959493929190610715565b600080876001600160a01b0316637ff36ab560e01b88888888886040516024016102b09594939291906106de565b80356001600160a01b038116811461040957600080fd5b919050565b60008083601f84011261042057600080fd5b50813567ffffffffffffffff81111561043857600080fd5b6020830191508360208260051b850101111561045357600080fd5b9250929050565b60008060008060008060a0878903121561047357600080fd5b61047c876103f2565b955060208701359450604087013567ffffffffffffffff81111561049f57600080fd5b6104ab89828a0161040e565b90955093506104be9050606088016103f2565b9150608087013590509295509295509295565b600080600080600080600060c0888a0312156104ec57600080fd5b6104f5886103f2565b96506020880135955060408801359450606088013567ffffffffffffffff81111561051f57600080fd5b61052b8a828b0161040e565b909550935061053e9050608089016103f2565b915060a0880135905092959891949750929550565b6000602080838503121561056657600080fd5b825167ffffffffffffffff8082111561057e57600080fd5b818501915085601f83011261059257600080fd5b8151818111156105a4576105a4610769565b8060051b604051601f19603f830116810181811085821117156105c9576105c9610769565b604052828152858101935084860182860187018a10156105e857600080fd5b600095505b8386101561060b5780518552600195909501949386019386016105ed565b5098975050505050505050565b8183526000602080850194508260005b85811015610654576001600160a01b03610641836103f2565b1687529582019590820190600101610628565b509495945050505050565b6000825160005b818110156106805760208186018101518583015201610666565b8181111561068f576000828501525b509190910192915050565b6020808252825182820181905260009190848201906040850190845b818110156106d2578351835292840192918401916001016106b6565b50909695505050505050565b8581526080602082015260006106f8608083018688610618565b6001600160a01b0394909416604083015250606001529392505050565b86815285602082015260a06040820152600061073560a083018688610618565b6001600160a01b039490941660608301525060800152949350505050565b634e487b7160e01b600052600160045260246000fd5b634e487b7160e01b600052604160045260246000fdfea2646970667358221220ac8869ab651be4f367354439adf66da3f8e9359851a18e5a35b2fbb94387264564736f6c63430008050033",
  "immutableReferences": {},
  "source": "// SPDX-License-Identifier: MIT\npragma solidity >=0.8.4 <0.9.0;\n\nimport '../interfaces/IPandaRouter01.sol';\n\ncontract RouterEventEmitter {\n    event Amounts(uint[] amounts);\n\n    receive() external payable {}\n\n    function swapExactTokensForTokens(\n        address router,\n        uint amountIn,\n        uint amountOutMin,\n        address[] calldata path,\n        address to,\n        uint deadline\n    ) external {\n        (bool success, bytes memory returnData) = router.delegatecall(abi.encodeWithSelector(\n            IPandaRouter01(router).swapExactTokensForTokens.selector, amountIn, amountOutMin, path, to, deadline\n        ));\n        assert(success);\n        emit Amounts(abi.decode(returnData, (uint[])));\n    }\n\n    function swapTokensForExactTokens(\n        address router,\n        uint amountOut,\n        uint amountInMax,\n        address[] calldata path,\n        address to,\n        uint deadline\n    ) external {\n        (bool success, bytes memory returnData) = router.delegatecall(abi.encodeWithSelector(\n            IPandaRouter01(router).swapTokensForExactTokens.selector, amountOut, amountInMax, path, to, deadline\n        ));\n        assert(success);\n        emit Amounts(abi.decode(returnData, (uint[])));\n    }\n\n    function swapExactETHForTokens(\n        address router,\n        uint amountOutMin,\n        address[] calldata path,\n        address to,\n        uint deadline\n    ) external payable {\n        (bool success, bytes memory returnData) = router.delegatecall(abi.encodeWithSelector(\n            IPandaRouter01(router).swapExactETHForTokens.selector, amountOutMin, path, to, deadline\n        ));\n        assert(success);\n        emit Amounts(abi.decode(returnData, (uint[])));\n    }\n\n    function swapTokensForExactETH(\n        address router,\n        uint amountOut,\n        uint amountInMax,\n        address[] calldata path,\n        address to,\n        uint deadline\n    ) external {\n        (bool success, bytes memory returnData) = router.delegatecall(abi.encodeWithSelector(\n            IPandaRouter01(router).swapTokensForExactETH.selector, amountOut, amountInMax, path, to, deadline\n        ));\n        assert(success);\n        emit Amounts(abi.decode(returnData, (uint[])));\n    }\n\n    function swapExactTokensForETH(\n        address router,\n        uint amountIn,\n        uint amountOutMin,\n        address[] calldata path,\n        address to,\n        uint deadline\n    ) external {\n        (bool success, bytes memory returnData) = router.delegatecall(abi.encodeWithSelector(\n            IPandaRouter01(router).swapExactTokensForETH.selector, amountIn, amountOutMin, path, to, deadline\n        ));\n        assert(success);\n        emit Amounts(abi.decode(returnData, (uint[])));\n    }\n\n    function swapETHForExactTokens(\n        address router,\n        uint amountOut,\n        address[] calldata path,\n        address to,\n        uint deadline\n    ) external payable {\n        (bool success, bytes memory returnData) = router.delegatecall(abi.encodeWithSelector(\n            IPandaRouter01(router).swapETHForExactTokens.selector, amountOut, path, to, deadline\n        ));\n        assert(success);\n        emit Amounts(abi.decode(returnData, (uint[])));\n    }\n}\n",
  "sourcePath": "C:/Users/skyne/Dev/work/skynet/HungryPandaHome/pandaswap/contracts/periphery/test/RouterEventEmitter.sol",
  "compiler": {
    "name": "solc",
    "version": "0.8.5+commit.a4f2e591.Emscripten.clang"
  },
  "schemaVersion": "3.4.1",
  "updatedAt": "2021-06-11T09:03:34.535Z",
  "devdoc": {
    "kind": "dev",
    "methods": {},
    "version": 1
  },
  "userdoc": {
    "kind": "user",
    "methods": {},
    "version": 1
  }
}