{
  "contractName": "SafeERC20NamerTest",
  "abi": [
    {
      "inputs": [
        {
          "internalType": "address",
          "name": "token",
          "type": "address"
        }
      ],
      "name": "tokenSymbol",
      "outputs": [
        {
          "internalType": "string",
          "name": "",
          "type": "string"
        }
      ],
      "stateMutability": "view",
      "type": "function"
    },
    {
      "inputs": [
        {
          "internalType": "address",
          "name": "token",
          "type": "address"
        }
      ],
      "name": "tokenName",
      "outputs": [
        {
          "internalType": "string",
          "name": "",
          "type": "string"
        }
      ],
      "stateMutability": "view",
      "type": "function"
    }
  ],
  "bytecode": "0x608060405234801561001057600080fd5b5061084a806100206000396000f3fe608060405234801561001057600080fd5b50600436106100365760003560e01c8063033b9b4f1461003b578063e54f752214610064575b600080fd5b61004e610049366004610575565b610077565b60405161005b9190610680565b60405180910390f35b61004e610072366004610575565b610088565b606061008282610093565b92915050565b6060610082826100c4565b606060006100a8836395d89b4160e01b6100ee565b9050805160001415610082576100bd8361021b565b9392505050565b606060006100d9836306fdde0360e01b6100ee565b9050805160001415610082576100bd83610228565b60408051600481526024810182526020810180516001600160e01b03166001600160e01b03198516179052905160609160009182916001600160a01b038716916101389190610664565b600060405180830381855afa9150503d8060008114610173576040519150601f19603f3d011682016040523d82523d6000602084013e610178565b606091505b509150915081158061018957508051155b156101a7576040518060200160405280600081525092505050610082565b8051602014156101dc576000818060200190518101906101c7919061059e565b90506101d281610235565b9350505050610082565b60408151111561020357808060200190518101906101fa91906105b7565b92505050610082565b50506040805160208101909152600081529392505050565b6060610082826006610391565b6060610082826028610391565b604080516020808252818301909252606091600091906020820181803683370190505090506000805b60208110156102dc57600085826020811061027b5761027b6107e8565b1a60f81b90506001600160f81b03198116156102c957808484815181106102a4576102a46107e8565b60200101906001600160f81b031916908160001a905350826102c58161078d565b9350505b50806102d48161078d565b91505061025e565b5060008167ffffffffffffffff8111156102f8576102f86107fe565b6040519080825280601f01601f191660200182016040528015610322576020820181803683370190505b50905060005b8281101561038857838181518110610342576103426107e8565b602001015160f81c60f81b82828151811061035f5761035f6107e8565b60200101906001600160f81b031916908160001a905350806103808161078d565b915050610328565b50949350505050565b606061039e6002836107a8565b1580156103ab5750600082115b80156103b8575060288211155b6104085760405162461bcd60e51b815260206004820152601e60248201527f41646472657373537472696e675574696c3a20494e56414c49445f4c454e0000604482015260640160405180910390fd5b60008267ffffffffffffffff811115610423576104236107fe565b6040519080825280601f01601f19166020018201604052801561044d576020820181803683370190505b5090506001600160a01b03841660005b6104686002866106f0565b81101561053e57600061047c826013610723565b610487906008610704565b83901c9050600f600482901c1660006104a360f084168461073a565b90506104ae82610548565b866104ba866002610704565b815181106104ca576104ca6107e8565b60200101906001600160f81b031916908160001a9053506104ea81610548565b866104f6866002610704565b6105019060016106b3565b81518110610511576105116107e8565b60200101906001600160f81b031916908160001a90535050505080806105369061078d565b91505061045d565b5090949350505050565b6000600a8260ff16101561056a576105618260306106cb565b60f81b92915050565b6105618260376106cb565b60006020828403121561058757600080fd5b81356001600160a01b03811681146100bd57600080fd5b6000602082840312156105b057600080fd5b5051919050565b6000602082840312156105c957600080fd5b815167ffffffffffffffff808211156105e157600080fd5b818401915084601f8301126105f557600080fd5b815181811115610607576106076107fe565b604051601f8201601f19908116603f0116810190838211818310171561062f5761062f6107fe565b8160405282815287602084870101111561064857600080fd5b61065983602083016020880161075d565b979650505050505050565b6000825161067681846020870161075d565b9190910192915050565b602081526000825180602084015261069f81604085016020870161075d565b601f01601f19169190910160400192915050565b600082198211156106c6576106c66107bc565b500190565b600060ff821660ff84168060ff038211156106e8576106e86107bc565b019392505050565b6000826106ff576106ff6107d2565b500490565b600081600019048311821515161561071e5761071e6107bc565b500290565b600082821015610735576107356107bc565b500390565b600060ff821660ff841680821015610754576107546107bc565b90039392505050565b60005b83811015610778578181015183820152602001610760565b83811115610787576000848401525b50505050565b60006000198214156107a1576107a16107bc565b5060010190565b6000826107b7576107b76107d2565b500690565b634e487b7160e01b600052601160045260246000fd5b634e487b7160e01b600052601260045260246000fd5b634e487b7160e01b600052603260045260246000fd5b634e487b7160e01b600052604160045260246000fdfea26469706673582212203fe7de373efea545a0375e8e8917e04339bca0e432ee64fe37f12623ecebad9864736f6c63430008050033",
  "immutableReferences": {},
  "source": "// SPDX-License-Identifier: GPL-3.0-or-later\npragma solidity >=0.8.4 <0.9.0;\npragma abicoder v2;\n\nimport '../libraries/SafeERC20Namer.sol';\n\n// used for testing the logic of token naming\ncontract SafeERC20NamerTest {\n    function tokenSymbol(address token) external view returns (string memory) {\n        return SafeERC20Namer.tokenSymbol(token);\n    }\n\n    function tokenName(address token) external view returns (string memory) {\n        return SafeERC20Namer.tokenName(token);\n    }\n}\n\n// does not implement name or symbol\ncontract NamerTestFakeOptionalERC20 {\n\n}\n\n// complies with ERC20 and returns strings\ncontract NamerTestFakeCompliantERC20 {\n    string public name;\n    string public symbol;\n\n    constructor(string memory name_, string memory symbol_){\n        name = name_;\n        symbol = symbol_;\n    }\n}\n\n// implements name and symbol but returns bytes32\ncontract NamerTestFakeNoncompliantERC20 {\n    bytes32 public name;\n    bytes32 public symbol;\n\n    constructor(bytes32 name_, bytes32 symbol_){\n        name = name_;\n        symbol = symbol_;\n    }\n}\n",
  "sourcePath": "C:/Users/skyne/Dev/work/skynet/HungryPandaHome/pandaswap/contracts/lib/test/SafeERC20NamerTest.sol",
  "compiler": {
    "name": "solc",
    "version": "0.8.5+commit.a4f2e591.Emscripten.clang"
  },
  "schemaVersion": "3.4.1",
  "updatedAt": "2021-06-11T09:03:34.432Z",
  "devdoc": {
    "kind": "dev",
    "methods": {},
    "version": 1
  },
  "userdoc": {
    "kind": "user",
    "methods": {},
    "version": 1
  }
}