{
  "contractName": "TransferHelperTest",
  "abi": [
    {
      "inputs": [
        {
          "internalType": "address",
          "name": "token",
          "type": "address"
        },
        {
          "internalType": "address",
          "name": "to",
          "type": "address"
        },
        {
          "internalType": "uint256",
          "name": "value",
          "type": "uint256"
        }
      ],
      "name": "safeApprove",
      "outputs": [],
      "stateMutability": "nonpayable",
      "type": "function"
    },
    {
      "inputs": [
        {
          "internalType": "address",
          "name": "token",
          "type": "address"
        },
        {
          "internalType": "address",
          "name": "to",
          "type": "address"
        },
        {
          "internalType": "uint256",
          "name": "value",
          "type": "uint256"
        }
      ],
      "name": "safeTransfer",
      "outputs": [],
      "stateMutability": "nonpayable",
      "type": "function"
    },
    {
      "inputs": [
        {
          "internalType": "address",
          "name": "token",
          "type": "address"
        },
        {
          "internalType": "address",
          "name": "from",
          "type": "address"
        },
        {
          "internalType": "address",
          "name": "to",
          "type": "address"
        },
        {
          "internalType": "uint256",
          "name": "value",
          "type": "uint256"
        }
      ],
      "name": "safeTransferFrom",
      "outputs": [],
      "stateMutability": "nonpayable",
      "type": "function"
    },
    {
      "inputs": [
        {
          "internalType": "address",
          "name": "to",
          "type": "address"
        },
        {
          "internalType": "uint256",
          "name": "value",
          "type": "uint256"
        }
      ],
      "name": "safeTransferETH",
      "outputs": [],
      "stateMutability": "nonpayable",
      "type": "function"
    }
  ],
  "bytecode": "0x608060405234801561001057600080fd5b5061066e806100206000396000f3fe608060405234801561001057600080fd5b506004361061004c5760003560e01c80637c4368c114610051578063d1660f9914610066578063d9fc4b6114610079578063eb5625d91461008c575b600080fd5b61006461005f3660046105aa565b61009f565b005b61006461007436600461056e565b6100ad565b610064610087366004610523565b6100bd565b61006461009a36600461056e565b6100cf565b6100a982826100da565b5050565b6100b88383836101a8565b505050565b6100c9848484846102c3565b50505050565b6100b88383836103f3565b604080516000808252602082019092526001600160a01b03841690839060405161010491906105fd565b60006040518083038185875af1925050503d8060008114610141576040519150601f19603f3d011682016040523d82523d6000602084013e610146565b606091505b50509050806100b85760405162461bcd60e51b815260206004820152602360248201527f5472616e7366657248656c7065723a204554485f5452414e534645525f46414960448201526213115160ea1b60648201526084015b60405180910390fd5b604080516001600160a01b038481166024830152604480830185905283518084039091018152606490920183526020820180516001600160e01b031663a9059cbb60e01b179052915160009283929087169161020491906105fd565b6000604051808303816000865af19150503d8060008114610241576040519150601f19603f3d011682016040523d82523d6000602084013e610246565b606091505b509150915081801561027057508051158061027057508080602001905181019061027091906105d4565b6102bc5760405162461bcd60e51b815260206004820152601f60248201527f5472616e7366657248656c7065723a205452414e534645525f4641494c454400604482015260640161019f565b5050505050565b604080516001600160a01b0385811660248301528481166044830152606480830185905283518084039091018152608490920183526020820180516001600160e01b03166323b872dd60e01b179052915160009283929088169161032791906105fd565b6000604051808303816000865af19150503d8060008114610364576040519150601f19603f3d011682016040523d82523d6000602084013e610369565b606091505b509150915081801561039357508051158061039357508080602001905181019061039391906105d4565b6103eb5760405162461bcd60e51b8152602060048201526024808201527f5472616e7366657248656c7065723a205452414e534645525f46524f4d5f46416044820152631253115160e21b606482015260840161019f565b505050505050565b604080516001600160a01b038481166024830152604480830185905283518084039091018152606490920183526020820180516001600160e01b031663095ea7b360e01b179052915160009283929087169161044f91906105fd565b6000604051808303816000865af19150503d806000811461048c576040519150601f19603f3d011682016040523d82523d6000602084013e610491565b606091505b50915091508180156104bb5750805115806104bb5750808060200190518101906104bb91906105d4565b6102bc5760405162461bcd60e51b815260206004820152601e60248201527f5472616e7366657248656c7065723a20415050524f56455f4641494c45440000604482015260640161019f565b80356001600160a01b038116811461051e57600080fd5b919050565b6000806000806080858703121561053957600080fd5b61054285610507565b935061055060208601610507565b925061055e60408601610507565b9396929550929360600135925050565b60008060006060848603121561058357600080fd5b61058c84610507565b925061059a60208501610507565b9150604084013590509250925092565b600080604083850312156105bd57600080fd5b6105c683610507565b946020939093013593505050565b6000602082840312156105e657600080fd5b815180151581146105f657600080fd5b9392505050565b6000825160005b8181101561061e5760208186018101518583015201610604565b8181111561062d576000828501525b50919091019291505056fea26469706673582212205f3e8caf77feb8e80eef07cc1f4505dc9603adf89ab3bb7b1212c5d952b6105d64736f6c63430008050033",
  "immutableReferences": {},
  "source": "// SPDX-License-Identifier: GPL-3.0-or-later\npragma solidity >=0.8.4 <0.9.0;\npragma abicoder v2;\n\nimport '../libraries/TransferHelper.sol';\n\n// test helper for transfers\ncontract TransferHelperTest {\n    function safeApprove(\n        address token,\n        address to,\n        uint256 value\n    ) external {\n        TransferHelper.safeApprove(token, to, value);\n    }\n\n    function safeTransfer(\n        address token,\n        address to,\n        uint256 value\n    ) external {\n        TransferHelper.safeTransfer(token, to, value);\n    }\n\n    function safeTransferFrom(\n        address token,\n        address from,\n        address to,\n        uint256 value\n    ) external {\n        TransferHelper.safeTransferFrom(token, from, to, value);\n    }\n\n    function safeTransferETH(address to, uint256 value) external {\n        TransferHelper.safeTransferETH(to, value);\n    }\n}\n\n// can revert on failure and returns true if successful\ncontract TransferHelperTestFakeERC20Compliant {\n    bool public success;\n    bool public shouldRevert;\n\n    function setup(bool success_, bool shouldRevert_) external {\n        success = success_;\n        shouldRevert = shouldRevert_;\n    }\n\n    function transfer(address, uint256) external view returns (bool) {\n        require(!shouldRevert, 'REVERT');\n        return success;\n    }\n\n    function transferFrom(\n        address,\n        address,\n        uint256\n    ) external view returns (bool) {\n        require(!shouldRevert, 'REVERT');\n        return success;\n    }\n\n    function approve(address, uint256) external view returns (bool) {\n        require(!shouldRevert, 'REVERT');\n        return success;\n    }\n}\n\n// only reverts on failure, no return value\ncontract TransferHelperTestFakeERC20Noncompliant {\n    bool public shouldRevert;\n\n    function setup(bool shouldRevert_) external {\n        shouldRevert = shouldRevert_;\n    }\n\n    function transfer(address, uint256) external view {\n        require(!shouldRevert);\n    }\n\n    function transferFrom(\n        address,\n        address,\n        uint256\n    ) external view {\n        require(!shouldRevert);\n    }\n\n    function approve(address, uint256) external view {\n        require(!shouldRevert);\n    }\n}\n\ncontract TransferHelperTestFakeFallback {\n    bool public shouldRevert;\n\n    function setup(bool shouldRevert_) external {\n        shouldRevert = shouldRevert_;\n    }\n\n    receive() external payable {\n        require(!shouldRevert);\n    }\n\n    function withdraw() external {\n        payable(msg.sender).transfer(address(this).balance);\n    }\n}\n",
  "sourcePath": "C:/Users/skyne/Dev/work/skynet/HungryPandaHome/pandaswap/contracts/lib/test/TransferHelperTest.sol",
  "compiler": {
    "name": "solc",
    "version": "0.8.5+commit.a4f2e591.Emscripten.clang"
  },
  "schemaVersion": "3.4.1",
  "updatedAt": "2021-06-11T09:03:34.434Z",
  "devdoc": {
    "kind": "dev",
    "methods": {},
    "version": 1
  },
  "userdoc": {
    "kind": "user",
    "methods": {},
    "version": 1
  }
}