{
  "contractName": "TransferHelperTestFakeFallback",
  "abi": [
    {
      "inputs": [],
      "name": "shouldRevert",
      "outputs": [
        {
          "internalType": "bool",
          "name": "",
          "type": "bool"
        }
      ],
      "stateMutability": "view",
      "type": "function"
    },
    {
      "stateMutability": "payable",
      "type": "receive"
    },
    {
      "inputs": [
        {
          "internalType": "bool",
          "name": "shouldRevert_",
          "type": "bool"
        }
      ],
      "name": "setup",
      "outputs": [],
      "stateMutability": "nonpayable",
      "type": "function"
    },
    {
      "inputs": [],
      "name": "withdraw",
      "outputs": [],
      "stateMutability": "nonpayable",
      "type": "function"
    }
  ],
  "bytecode": "0x608060405234801561001057600080fd5b50610153806100206000396000f3fe6080604052600436106100385760003560e01c80633ccfd60b14610054578063d3072d8214610069578063e2c169ec1461009757600080fd5b3661004f5760005460ff161561004d57600080fd5b005b600080fd5b34801561006057600080fd5b5061004d6100c5565b34801561007557600080fd5b506000546100839060ff1681565b604051901515815260200160405180910390f35b3480156100a357600080fd5b5061004d6100b23660046100f4565b6000805460ff1916911515919091179055565b60405133904780156108fc02916000818181858888f193505050501580156100f1573d6000803e3d6000fd5b50565b60006020828403121561010657600080fd5b8135801515811461011657600080fd5b939250505056fea2646970667358221220ddb63a2a9d0d15a9a5efa642545f95c814d9caeac0e82239a984d6747f1b734a64736f6c63430008050033",
  "immutableReferences": {},
  "source": "// SPDX-License-Identifier: GPL-3.0-or-later\npragma solidity >=0.8.4 <0.9.0;\npragma abicoder v2;\n\nimport '../libraries/TransferHelper.sol';\n\n// test helper for transfers\ncontract TransferHelperTest {\n    function safeApprove(\n        address token,\n        address to,\n        uint256 value\n    ) external {\n        TransferHelper.safeApprove(token, to, value);\n    }\n\n    function safeTransfer(\n        address token,\n        address to,\n        uint256 value\n    ) external {\n        TransferHelper.safeTransfer(token, to, value);\n    }\n\n    function safeTransferFrom(\n        address token,\n        address from,\n        address to,\n        uint256 value\n    ) external {\n        TransferHelper.safeTransferFrom(token, from, to, value);\n    }\n\n    function safeTransferETH(address to, uint256 value) external {\n        TransferHelper.safeTransferETH(to, value);\n    }\n}\n\n// can revert on failure and returns true if successful\ncontract TransferHelperTestFakeERC20Compliant {\n    bool public success;\n    bool public shouldRevert;\n\n    function setup(bool success_, bool shouldRevert_) external {\n        success = success_;\n        shouldRevert = shouldRevert_;\n    }\n\n    function transfer(address, uint256) external view returns (bool) {\n        require(!shouldRevert, 'REVERT');\n        return success;\n    }\n\n    function transferFrom(\n        address,\n        address,\n        uint256\n    ) external view returns (bool) {\n        require(!shouldRevert, 'REVERT');\n        return success;\n    }\n\n    function approve(address, uint256) external view returns (bool) {\n        require(!shouldRevert, 'REVERT');\n        return success;\n    }\n}\n\n// only reverts on failure, no return value\ncontract TransferHelperTestFakeERC20Noncompliant {\n    bool public shouldRevert;\n\n    function setup(bool shouldRevert_) external {\n        shouldRevert = shouldRevert_;\n    }\n\n    function transfer(address, uint256) external view {\n        require(!shouldRevert);\n    }\n\n    function transferFrom(\n        address,\n        address,\n        uint256\n    ) external view {\n        require(!shouldRevert);\n    }\n\n    function approve(address, uint256) external view {\n        require(!shouldRevert);\n    }\n}\n\ncontract TransferHelperTestFakeFallback {\n    bool public shouldRevert;\n\n    function setup(bool shouldRevert_) external {\n        shouldRevert = shouldRevert_;\n    }\n\n    receive() external payable {\n        require(!shouldRevert);\n    }\n\n    function withdraw() external {\n        payable(msg.sender).transfer(address(this).balance);\n    }\n}\n",
  "sourcePath": "C:/Users/skyne/Dev/work/skynet/HungryPandaHome/pandaswap/contracts/lib/test/TransferHelperTest.sol",
  "compiler": {
    "name": "solc",
    "version": "0.8.5+commit.a4f2e591.Emscripten.clang"
  },
  "schemaVersion": "3.4.1",
  "updatedAt": "2021-06-11T09:03:34.442Z",
  "devdoc": {
    "kind": "dev",
    "methods": {},
    "version": 1
  },
  "userdoc": {
    "kind": "user",
    "methods": {},
    "version": 1
  }
}